:020000040800F2
:10000000B805002049010008F1040008E9040008CF
:10001000ED040008610300089F0D000800000000C7
:100020000000000000000000000000007106000851
:100030006503000800000000790500088507000836
:100040006301000863010008630100086301000800
:1000500063010008630100086301000863010008F0
:1000600063010008630100086301000863010008E0
:1000700063010008630100086301000863010008D0
:1000800063010008630100086301000863010008C0
:1000900063010008630100086301000863010008B0
:1000A00063010008630100086301000863010008A0
:1000B0006301000863010008630100086301000890
:1000C0006301000863010008630100086301000880
:1000D00063010008810900084D0A0008190B000897
:1000E0006301000863010008630100086301000860
:1000F0006301000863010008630100086301000850
:10010000630100086301000863010008630100083F
:10011000E9070008B508000863010008630100084A
:10012000630100086301000863010008630100081F
:10013000DFF810D000F030F8004800475D0F0008ED
:10014000AFF30080B8050020064880470648004706
:10015000FEE7FEE7FEE7FEE7FEE7FEE7FEE7FEE777
:10016000FEE7FEE7890700083101000830B50B46BD
:10017000014600202022012409E021FA02F59D42D7
:1001800005D303FA02F5491B04FA02F52844151EAB
:10019000A2F10102F1DC30BD064C074D06E0E0683B
:1001A00040F0010394E8070098471034AC42F6D3BE
:1001B000FFF7C2FF701000089010000808B5012179
:1001C000102000F0DBF94FF40050ADF800001020D3
:1001D0008DF8030003208DF802006946044800F002
:1001E000E6F84FF40051024800F075F908BD000030
:1001F0000010014010B56FF0040000F0AFFA10BD20
:1002000070B504464FF4FA7094FBF0F0C6B24FF4A8
:10021000FA7094FBF0F100FB114085B205E04FF459
:10022000FA7000F0A0F8701EC6B2002EF7D115B11A
:10023000284600F098F870BD01464906084A9269C0
:1002400042F00102064B9A61064A526822F0E062CF
:10025000044B5A601A4652680A435A6070470000BD
:10026000001002400000014008B50121142000F0F8
:1002700085F91020ADF800008DF8030003208DF8FB
:10028000020069460A4800F092F84FF48070ADF819
:1002900000006946074800F08AF81021044800F081
:1002A0001CF94FF48071034800F017F908BD0000F5
:1002B000001001400008014010B586B0044601213D
:1002C000042000F05BF90121880300F057F94FF496
:1002D0000070ADF8140018208DF8170003208DF879
:1002E000160005A91C4800F062F84FF48060ADF8D4
:1002F000140004208DF8170005A9174800F057F8DE
:1003000001940020ADF80800ADF80A00ADF80C002B
:10031000ADF810000C20ADF80E0001A90F4800F058
:10032000C9FC25208DF8000002208DF80100012075
:100330008DF802008DF80300684600F0DBF801221A
:1003400040F22551054800F090FC0121034800F0DF
:1003500049FC06B010BD0000000801400038014013
:1003600000BFFEE77047014642F228324A434FF091
:10037000E0235A6100229A611A46126942F0010292
:100380001A6100BF4FF0E022106900F001021AB1BB
:1003900000F48032002AF5D04FF0E022126922F0FA
:1003A00001024FF0E0231A6100229A6170472DE9A3
:1003B000F0410246002500260020002300240027EB
:1003C00091F803C00CF00F0591F803C00CF0100C6D
:1003D000BCF1000F03D091F802C04CEA050591F87A
:1003E00000C0BCF1000F31D0146800202BE04FF0AA
:1003F000010C0CFA00F3B1F800C00CEA03069E42AF
:1004000020D183004FF00F0C0CFA03F7BC4305FA20
:1004100003FC4CEA040491F803C0BCF1280F06D198
:100420004FF0010C0CFA00FCC2F814C00AE091F87D
:1004300003C0BCF1480F05D14FF0010C0CFA00FCD1
:10044000C2F810C0401C0828D1D31460B1F800C015
:10045000BCF1FF0F34DD546800202EE000F1080CE1
:100460004FF0010808FA0CF3B1F800C00CEA0306DB
:100470009E4221D183004FF00F0C0CFA03F7BC43CE
:1004800005FA03FC4CEA040491F803C0BCF1280F00
:1004900005D100F1080C08FA0CF8C2F8148091F8A4
:1004A00003C0BCF1480F07D100F1080C4FF0010860
:1004B00008FA0CF8C2F81080401C0828CED354600B
:1004C000BDE8F0810246002093680B400BB101208B
:1004D00000E00020704741617047016170470AB138
:1004E000016100E04161704700BFFEE700BFFEE729
:1004F0007047000070B5002100230F22C47804B3B8
:10050000154C246804F4E064C4F5E064210AC1F1E8
:100510000403CA40447804FA03F184781440214368
:1005200009010E4C0678A155047804F01F0501243A
:10053000AC4005786D11AD0005F1E025C5F800412E
:1005400009E0047804F01F050124AC40044D06784E
:10055000761145F8264070BD0CED00E000E400E0A7
:1005600080E100E002490143024A11607047000047
:100570000000FA050CED00E07047000029B1064AC2
:1005800092690243044B9A6104E0034A92698243F0
:10059000014B9A61704700000010024030B5002105
:1005A0000022002400232D4D6D6805F00C0121B1BF
:1005B000042905D0082923D105E0294D056022E052
:1005C000274D05601FE0254D6D6805F47012234D21
:1005D0006D6805F48034022505EB92421CB9214D6B
:1005E000554305600BE01D4D6D6805F400351DB1E8
:1005F0001C4D5543056002E0194D5543056002E06E
:10060000174D056000BF00BF144D6D6805F0F00187
:100610000909154D6B5C0568DD4045600F4D6D683F
:1006200005F4E061090A104D6B5C4568DD408560AA
:100630000A4D6D6805F46051C90A0B4D6B5C456845
:10064000DD40C560054D6D6805F44041890B074DDF
:100650006B5CC568B5FBF3F5056130BD0010024069
:1006600000127A0000093D000F0000201F0000204A
:10067000704710B500F002F810BD00000CB5002066
:10068000019000903348006840F4803031490860A0
:1006900000BF3048006800F4003000900198401C12
:1006A0000190009818B90198B0F5A06FF1D12948D0
:1006B000006800F4003010B10120009001E000203B
:1006C00000900098012843D12348006840F01000B2
:1006D000214908600846006820F0030008600846C9
:1006E000006840F0020008601A48406819494860F4
:1006F0000846406848600846406840F480604860AA
:100700000846406820F47C1048600846406840F481
:10071000E81048600846006840F08070086000BF3C
:100720000C48006800F000700028F9D009484068C3
:1007300020F00300074948600846406840F0020086
:10074000486000BF0348406800F00C000828F9D159
:100750000CBD00000010024000200240042808D117
:100760004FF0E021096941F004014FF0E0221161EE
:1007700007E04FF0E021096921F004014FF0E02289
:10078000116170477047000010B51348006840F0D1
:1007900001001149086008464068104908400E49A8
:1007A0004860084600680E4908400B490860084642
:1007B000006820F4802008600846406820F4FE00AD
:1007C00048604FF41F008860FFF753FF4FF0006050
:1007D0000449086010BD0000001002400000FFF84E
:1007E000FFFFF6FE08ED00E010B540F225512C4861
:1007F00000F011FA002851D0294800F0C7FAC4B21D
:1008000028480078032823DA2648007838B9AA2C2B
:100810003ED12548047001202249087038E0214863
:10082000007801280BD1552C05D11F4844700220B7
:100830001C4908702CE000201A49087028E01A486A
:100840008470032017490870601E184908701FE063
:1008500015488078401E1349097888420EDD1248F9
:100860001049097844540F480078401C0D4908701D
:100870000E48007820440D49087009E0002009491D
:1008800008700A480078844202D1012008490870A3
:10089000012240F22551024800F0E7F910BD0000A6
:1008A000004C00400A000020180100200B0000202E
:1008B0000900002010B540F225512C4800F0ABF99A
:1008C000002851D0294800F061FAC4B228480078C5
:1008D000032823DA2648007838B9AA2C3ED12548C7
:1008E000047001202249087038E02148007801286E
:1008F0000BD1552C05D11F48447002201C490870AB
:100900002CE000201A49087028E01A48847003205F
:1009100017490870601E184908701FE01548807854
:10092000401E1349097888420EDD124810490978A3
:1009300044540F480078401C0D4908700E48007858
:1009400020440D49087009E00020094908700A4850
:100950000078844202D1012008490870012240F247
:100960002551024800F081F910BD00000050004000
:100970000D000020680100200E0000200C00002067
:1009800010B540F225512C4800F045F9002851D00F
:10099000294800F0FBF9C4B228480078032823DA7C
:1009A0002648007838B9AA2C3ED125480470012089
:1009B0002249087038E02148007801280BD1552CD5
:1009C00005D11F48447002201C4908702CE000200B
:1009D0001A49087028E01A488470032017490870E3
:1009E000601E184908701FE015488078401E1349A2
:1009F000097888420EDD12481049097844540F489E
:100A00000078401C0D4908700E48007820440D49BC
:100A1000087009E00020094908700A4800788442FB
:100A200002D1012008490870012240F225510248F4
:100A300000F01BF910BD000000380140010000204B
:100A400028000020020000200000002010B540F225
:100A500025512C4800F0DFF8002851D0294800F03B
:100A600095F9C4B228480078032823DA264800788C
:100A700038B9AA2C3ED125480470012022490870BB
:100A800038E02148007801280BD1552C05D11F48AA
:100A9000447002201C4908702CE000201A4908709C
:100AA00028E01A488470032017490870601E18490E
:100AB00008701FE015488078401E13490978884265
:100AC0000EDD12481049097844540F480078401C44
:100AD0000D4908700E48007820440D49087009E05F
:100AE0000020094908700A480078844202D1012098
:100AF00008490870012240F22551024800F0B5F87B
:100B000010BD0000004400400400002078000020D8
:100B1000050000200300002010B540F225512C48AC
:100B200000F079F8002851D0294800F02FF9C4B21C
:100B300028480078032823DA2648007838B9AA2CF8
:100B40003ED12548047001202249087038E0214830
:100B5000007801280BD1552C05D11F484470022084
:100B60001C4908702CE000201A49087028E01A4837
:100B70008470032017490870601E184908701FE030
:100B800015488078401E1349097888420EDD1248C6
:100B90001049097844540F480078401C0D490870EA
:100BA0000E48007820440D49087009E000200949EA
:100BB00008700A480078844202D101200849087070
:100BC000012240F22551024800F04FF810BD00000C
:100BD0000048004007000020C80000200800002056
:100BE0000600002021B1828942F40052828104E093
:100BF00082894DF6FF731A408281704702460020B9
:100C0000B1F5007F00D100BF13880B400BB101206C
:100C100000E00020704770B5024600240023002544
:100C2000002040F66A16B14200D100BFC1F3421560
:100C300001F01F03012606FA03F3012D02D1968964
:100C4000334006E0022D02D1168A334001E0968A35
:100C500033400C12012606FA04F41688344013B10E
:100C60000CB1012000E0002070BDF0B50346002467
:100C700000260025002040F66A17B94200D100BFC7
:100C80001846C1F3421401F01F06012707FA06F5C2
:100C9000012C01D10C3004E0022C01D1103000E015
:100CA00014301AB107682F43076002E00768AF43AA
:100CB0000760F0BD2DE9F04786B005460E460024DA
:100CC000A24600BFA1460027B08900B100BF2F4651
:100CD0002C8A4CF6FF700440F08804432C82AC89C7
:100CE0004EF6F3100440B0883189084371890843F7
:100CF0000443AC81AC8A4FF6FF400440B089044302
:100D0000AC8201A8FFF74AFC1F48874202D1DDF8F8
:100D100010A001E0DDF80CA0A88900F4004040B16B
:100D20000AEBCA0000EB0A1031684900B0FBF1F889
:100D300007E00AEBCA0000EB0A1031688900B0FB3B
:100D4000F1F86420B8FBF0F004012009642101FBF4
:100D50001089A88900F4004040B1322000EBC9009E
:100D6000B0FBF1F000F00700044308E0322000EB94
:100D700009106421B0FBF1F000F00F0004432C8156
:100D800006B0BDE8F08700000038014001468888C1
:100D9000C0F308007047C1F308028280704700BFAB
:100DA000FEE700000FB4054B10B503A9044A0298F2
:100DB00000F018F810BC5DF814FB0000390F0008B3
:100DC0002400002002E008C8121F08C1002AFAD13E
:100DD00070477047002001E001C1121F002AFBD1BB
:100DE000704700002DE9FF4F89B09B46044600255F
:100DF00006E025280BD05A460B999047641C6D1CC1
:100E000020780028F5D10DB02846BDE8F08F0027E6
:100E1000B8460122474900E0074314F8013F203B50
:100E200002FA03F00842F7D120782E2819D114F8DD
:100E3000010F47F004072A280ED06FF02F02207808
:100E4000A0F1300109290CD808EB880102EB41011F
:100E500000EB0108641CF2E70A98641C50F8048B4C
:100E60000A9020780028CED0642808D0692806D0BF
:100E700075281ED05A460B9990476D1C58E00A9968
:100E80004FF00A0901C90A91002802DA40422D21D7
:100E900002E0390504D52B218DF82010012103E053
:100EA000F90704D02021F7E78A4608AE0DE00021BB
:100EB000FAE70A994FF00A0901C90A91F7E749468A
:100EC000FFF754F9303106F8011D0028F7D1ADEBDA
:100ED000060000F12009780701D44FF00108C84549
:100EE00002DDA8EB090000E000208046002706E0B4
:100EF00008A85A46C05D0B9990476D1C7F1C57454A
:100F0000F6DB04E030205A460B9990476D1CB8F18F
:100F10000001A8F10108F5DC05E016F8010B5A46BE
:100F20000B9990476D1CB9F10001A9F10109F4DC9E
:100F3000641C65E70928010070B504460D46E1B25E
:100F40000548FFF728FF00BF40210348FFF756FE82
:100F50000028F9D0204670BD0038014000244FF42D
:100F6000A060FFF7FFFA0220FFF766F90120FFF704
:100F700063F9FFF73FF9FFF777F9FFF71FF94FF430
:100F8000E130FFF799F930A0FFF70CFF4FF48071C3
:100F90002F48FFF7A0FA4FF4FA70FFF731F94FF43A
:100FA00080712B48FFF799FA4FF4FA70FFF728F990
:100FB00010212848FFF78FFA4FF4FA70FFF720F955
:100FC00010212448FFF789FA4FF4FA70FFF718F957
:100FD0004FF400511F48FFF780FA4FF4FA70FFF703
:100FE0000FF94FF400511B48FFF775FA4FF47A7070
:100FF000FFF706F910211748FFF76DFA22E02146A6
:1010000015A0FFF7CFFE601CC4B26420FFF7F8F80C
:101010004FF480710E48FFF755FAC0F10100C5B2D8
:101020002A464FF480710A48FFF759FA10210948FF
:10103000FFF748FAC0F10100C5B22A461021054861
:10104000FFF74DFADBE7000020200D0A000000004A
:1010500000080140001001405072696E7466CAE4D5
:10106000B3F6B2E2CAD4A3BA2564200D0A00000088
:10107000901000080000002028000000C40D0008A7
:10108000B81000082800002090050000D40D0008CA
:101090000000000000000000000000000000000050
:1010A000000000010203040102030406070809020C
:0810B000040608000000000026
:0400000508000131BD
:00000001FF
