:020000040800F2
:10000000380F0020CD01000881090008D908000838
:100010007D090008190300085F2D0008000000009A
:10002000000000000000000000000000710F000848
:10003000BD07000800000000250E0008851000081C
:10004000E7010008E7010008E7010008E7010008F0
:10005000E7010008E7010008E7010008E7010008E0
:10006000E7010008E7010008E7010008E7010008D0
:10007000E7010008E7010008E7010008E7010008C0
:10008000E7010008E7010008E7010008E7010008B0
:10009000E7010008E7010008E7010008E7010008A0
:1000A000E7010008E7010008E7010008E701000890
:1000B000E7010008E7010008E7010008E701000880
:1000C000E7010008E7010008E7010008E701000870
:1000D000E7010008C51E0008011F0008552500089B
:1000E000E7010008E7010008E7010008E701000850
:1000F000E7010008E7010008E7010008E701000840
:10010000E7010008E7010008E9100008E70100081E
:100110001D12000871180008E7010008E701000837
:10012000E7010008E7010008E7010008E70100080F
:1001300000F002F800F03AF80AA090E8000C8244BF
:100140008344AAF10107DA4501D100F02FF8AFF29C
:10015000090EBAE80F0013F0010F18BFFB1A43F0A5
:10016000010318479C400000BC400000103A24BF27
:1001700078C878C1FAD8520724BF30C830C144BF0C
:1001800004680C607047000000230024002500264E
:10019000103A28BF78C1FBD8520728BF30C148BFEA
:1001A0000B6070471FB51FBD10B510BD00F07CF887
:1001B0001146FFF7F7FF03F043F800F09AF803B495
:1001C000FFF7F2FF03BC02F0CCFD000009488047B6
:1001D00009480047FEE7FEE7FEE7FEE7FEE7FEE729
:1001E000FEE7FEE7FEE7FEE704480549054A064B41
:1001F000704700008910000831010008380900200C
:10020000380F0020380B0020380B002070474FF0CB
:1002100000020429C0F0128010F0030C00F01F80CF
:10022000CCF1040CBCF1020F18BF00F8012BA8BFE1
:1002300020F8022BA1EB0C0100F011B85FEAC17CA1
:1002400024BF00F8012B00F8012B48BF00F8012B58
:10025000704770477047704770474FF0000200B515
:10026000134694469646203922BFA0E80C50A0E8D9
:100270000C50B1F12001BFF4F7AF090728BFA0E887
:100280000C5048BF0CC05DF804EB890028BF40F853
:10029000042B08BF704748BF20F8022B11F0804F95
:1002A00018BF00F8012B7047754600F02BF8AE46DA
:1002B00005006946534620F00700854618B020B572
:1002C000FFF792FFBDE820404FF000064FF0000717
:1002D0004FF000084FF0000B21F00701AC46ACE8EE
:1002E000C009ACE8C009ACE8C009ACE8C0098D465B
:1002F000704710B50446AFF300802046BDE81040BB
:10030000FFF75DBF00487047D8080020014908602A
:100310007047000000860D4200BFFEE72DE9F04364
:1003200087B004460D4616461F46DDF838904FF05C
:10033000000814B10DB106B11FB9012007B0BDE826
:10034000F083601EC4B2681EC5B2701EC6B2781EAD
:1003500087B20121480600F067FD0121042000F06A
:1003600073FD4FF40060ADF8180048208DF81B00B5
:1003700006A94E4800F023FA4FF48050ADF818005B
:1003800018208DF81B0003208DF81A0006A9474895
:1003900000F015FA0020464908600846006840F061
:1003A0000100086008E008F101001FFA80F8B8F1C8
:1003B000640F01DD0220C1E73D48006800F0010044
:1003C0000028F0D03A4800683949086008460068BB
:1003D00008600846006840F01000086008460068A1
:1003E0000860084600680860002031491C31086038
:1003F0000846006840EA897008600846006840EADC
:10040000046008600846006840EA05500860084635
:10041000006840EA06400860084600683843086003
:100420002348006820F001002149086009E008F134
:1004300001001FFA80F84FF6F070804501DD0320BF
:100440007CE71B48006800F001000028EFD1012084
:100450008DF80E0000208DF80F0001208DF810009F
:100460000020ADF80400ADF80A00ADF80800ADF8C2
:100470000A00ADF80C0001208DF8110001A800F071
:1004800001F914208DF8140001208DF815008DF865
:1004900016008DF8170005A800F074FA0122022159
:1004A000034800F073F9002048E70000000801400D
:1004B00000640040F8B506460D46002408230022DB
:1004C00011463046009500F015F8074601E0601C23
:1004D00084B2384600F094F8072803D040F6FF7045
:1004E0008442F4DB40F6FF70844201DB0120F8BD5A
:1004F0000020FCE7F0B505460E46059C3E48006826
:1005000000F0806008B100210FE03B48006800F077
:10051000006008B1012108E03748006800F0805011
:1005200008B1022101E0FF20F0BD0027334800EBB5
:10053000011007601EB9C5F30A056D0502E025F03C
:100540006045ED002D4800EB0110006828432B4F5B
:1005500007EB01173860294800EB0110006840EAFA
:100560008607264800EB01100760244800EB0110C5
:10057000006840EA4207214800EB0110076003F0E1
:100580000F031E4800EB0110406820F00F071B48C6
:1005900000EB01104760194800EB01104068184358
:1005A000164F07EB01177860E0790006A77940EA5B
:1005B0000740677940EA0727207907430F4800EB97
:1005C0000110C760E0780006A77840EA0740677826
:1005D00040EA072027783843084F07EB0117B86037
:1005E000064800EB0110006840F00107034800EBEB
:1005F00001100760084697E70864004080650040E6
:100600000146002021B1012913D0022933D121E074
:100610001B4A126802F001021043194A126802F0E4
:1006200002021043164A126802F0806240EA126029
:1006300023E0134A126802F001021043104A1268C4
:1006400002F0020210430E4A126802F0006240EA11
:10065000526012E00A4A126802F001021043084A8E
:10066000126802F002021043054A126802F080523A
:1006700040EA926001E0052000BF00BF7047000023
:100680000864004010B50021837A012202FA03F1C8
:100690003D4A126842F001023B4B1A603A4A1C3252
:1006A00012688A43384B1C331A60027BCAB9364A37
:1006B0000C3212688A43344B0C331A604288C38868
:1006C00042EA0343304A4032847A42F834300288A6
:1006D000838842EA03432C4A4032847A02EBC40204
:1006E0005360027B012A19D1274A0C3212680A434F
:1006F000254B0C331A604288038842EA0343224A9E
:100700004032847A42F83430C288838842EA034314
:100710001D4A4032847A02EBC4025360C27A3AB96D
:10072000194A121D12688A43174B1B1D1A6006E0F6
:10073000154A121D12680A43134B1B1D1A600289C9
:1007400032B9114A143212688A430F4B14331A60BB
:100750000289012A06D10C4A143212680A430A4B54
:1007600014331A60427B012A06D1074A1C321268F0
:100770000A43054B1C331A60034A126822F0010237
:10078000014B1A6010BD0000006600401AB14369B9
:100790000B43436102E043698B43436170470000B0
:1007A0000020002104E0044A525C50404A1CD1B2AF
:1007B0000929F8DB70470000BC00002070472DE9D4
:1007C000F0410246002500260020002300240027D7
:1007D00091F803C00CF00F0591F803C00CF0100C59
:1007E000BCF1000F03D091F802C04CEA050591F866
:1007F00000C0BCF1000F31D0146800202BE04FF096
:10080000010C0CFA00F3B1F800C00CEA03069E429A
:1008100020D183004FF00F0C0CFA03F7BC4305FA0C
:1008200003FC4CEA040491F803C0BCF1280F06D184
:100830004FF0010C0CFA00FCC2F814C00AE091F869
:1008400003C0BCF1480F05D14FF0010C0CFA00FCBD
:10085000C2F810C0401C0828D1D31460B1F800C001
:10086000BCF1FF0F34DD546800202EE000F1080CCD
:100870004FF0010808FA0CF3B1F800C00CEA0306C7
:100880009E4221D183004FF00F0C0CFA03F7BC43BA
:1008900005FA03FC4CEA040491F803C0BCF1280FEC
:1008A00005D100F1080C08FA0CF8C2F8148091F890
:1008B00003C0BCF1480F07D100F1080C4FF001084C
:1008C00008FA0CF8C2F81080401C0828CED35460F7
:1008D000BDE8F0810161704700BFFEE701464906AF
:1008E000084A926942F00102064B9A61064A526830
:1008F00022F0E062044B5A601A4652680A435A607A
:1009000070470000001002400000014018B90021AB
:10091000094A11600FE009490968491C074A11603A
:10092000814208D104490968C943054AC2F8B41193
:100930000021024A11607047B4012242B800002031
:100940000000224208B50121102000F07DFA4FF48A
:100950000050ADF8000010208DF8030003208DF842
:10096000020069460448FFF72AFF4FF4005102488D
:10097000FFF7B0FF08BD00000010014000BFFEE718
:100980007047000070B5002100230F22C47804B323
:10099000154C246804F4E064C4F5E064210AC1F154
:1009A0000403CA40447804FA03F1847814402143D4
:1009B00009010E4C0678A155047804F01F050124A6
:1009C000AC4005786D11AD0005F1E025C5F800419A
:1009D00009E0047804F01F050124AC40044D0678BA
:1009E000761145F8264070BD0CED00E000E400E013
:1009F00080E100E002490143024A116070470000B3
:100A00000000FA050CED00E030B500240CE00025F4
:100A100006E00020074901EBC5010855681CC5B276
:100A2000802DF6DB601CC4B2082CF0DB00F0E2F88D
:100A300030BD0000CC010020F0B5144600267F2810
:100A400001DC3F2900DDF0BD0B46CF1701EB5777E6
:100A5000FF10C7F10707FAB2CF1701EB5777FF1066
:100A6000A1EBC707FDB2C5F107070123BB40DEB20A
:100A70004CB10A4B03EBC0039B5C3343074F07EBBE
:100A8000C007BB5408E0054B03EBC0039B5CB343BA
:100A9000024F07EBC007BB5400BFD4E7CC010020D6
:100AA00008B50121082000F0CFF93820ADF800008A
:100AB00010208DF8030002208DF802006946494895
:100AC000FFF77DFE0121042000F0BEF94FF4004045
:100AD000ADF8000002208DF8020010208DF8030010
:100AE00069464148FFF76BFE012000F095F90020B0
:100AF00000F024FA0020FFF709FC002000F08CF938
:100B000000203A490860642002F074FB0120384953
:100B1000C1F88C010021AE2000F052F90021D5204F
:100B200000F04EF90021502000F04AF90021A820E1
:100B300000F046F900213F2000F042F90021D320C7
:100B400000F03EF90021084600F03AF9002140206B
:100B500000F036F900218D2000F032F90021142038
:100B600000F02EF90021202000F02AF900210220B7
:100B700000F026F90021A12000F022F90021C02078
:100B800000F01EF90021DA2000F01AF900211220ED
:100B900000F016F90021812000F012F90021EF2069
:100BA00000F00EF90021D92000F00AF90021F1200F
:100BB00000F006F90021DB2000F002F900213020CE
:100BC00000F0FEF80021A42000F0FAF80021A62091
:100BD00000F0F6F80021AF2000F0F2F8FFF714FF64
:100BE00008BD0000000C0140000801408C8121423A
:100BF0000080214230B500241CE004F1B001C8B2ED
:100C0000002100F0DDF80021084600F0D9F80021AD
:100C1000102000F0D5F8002508E0084901EBC501D7
:100C2000085D012100F0CCF8681CC5B2802DF4DB12
:100C3000601CC4B2082CE0DB30BD0000CC010020F9
:100C40002DE9F04F80460C4615461E46A346A5F1F9
:100C50002000C5B200273EE00C2E07D105EB450071
:100C60001F4901EB800010F8079004E01D4800EBDD
:100C7000051010F807904FF0000A26E009F08000F8
:100C800028B121464046099AFFF7D6FE09E00998A7
:100C900008B9012000E00020024621464046FFF747
:100CA000CBFE4FEA49604FEA1069601CC4B2A4EB66
:100CB0000B00B04205D15C4608F1010000F0FF08CE
:100CC00006E00AF1010000F0FF0ABAF1080FD5DBD7
:100CD00000BF781CC7B2B742BEDBBDE8F08F000092
:100CE0009C370008103C00082DE9FF4F81B00746F3
:100CF00091461E460E9D4FF0000A002439E0301B3D
:100D0000401EC1B20A2002F0E3FAB9FBF0F00A215A
:100D1000B0FBF1F201FB1208BAF1000F16D1701E00
:100D2000A04213DDB8F1000F0ED10120AB4605EB58
:100D3000DB71491001FB04710090C8B22B462022E0
:100D40000299FFF77DFF12E04FF0010A0120AB4648
:100D500005EBDB71491001FB04710090C8B208F18A
:100D60003001CAB22B460299FFF76AFF00BF601C30
:100D7000C4B2B442C3DB05B0BDE8F08F78B5054618
:100D80000E46144618E07A2D03DD002506F110000A
:100D9000C6B23A2E04DD002005460646FFF734FEB3
:100DA0000120009022780C2331462846FFF748FFA7
:100DB00005F10800C5B2641C20780028E3D178BD95
:100DC00010B50A461AB10123114C236002E000233A
:100DD0000F4C2360002114E000230E4C236000F030
:100DE00080031BB10123241F236003E00023094C6F
:100DF000241F23600123074C23604306180E4B1C5D
:100E0000D9B20829E8DB0123014C236010BD0000A2
:100E1000BC012142948121420149086270470000CF
:100E200000000E427047000029B1064AD269024311
:100E3000044BDA6104E0034AD2698243014BDA6170
:100E4000704700000010024029B1064A926902432F
:100E5000044B9A6104E0034A92698243014B9A6110
:100E6000704700000010024030B50021002200242D
:100E700000232D4D6D6805F00C0121B1042905D02A
:100E8000082923D105E0294D056022E0274D0560A2
:100E90001FE0254D6D6805F47012234D6D6805F453
:100EA0008034022505EB92421CB9214D5543056063
:100EB0000BE01D4D6D6805F400351DB11C4D55430B
:100EC000056002E0194D5543056002E0174D0560CD
:100ED00000BF00BF144D6D6805F0F0010909154D04
:100EE0006B5C0568DD4045600F4D6D6805F4E061A1
:100EF000090A104D6B5C4568DD4085600A4D6D68E0
:100F000005F46051C90A0B4D6B5C4568DD40C56056
:100F1000054D6D6805F44041890B074D6B5CC56854
:100F2000B5FBF3F5056130BD0010024000127A00F8
:100F300000093D00400000205000002000210B4A25
:100F400011700A4A203A82F82010012802D00428A1
:100F500008D103E00121054A117004E00521034A8C
:100F6000117000E000BF00BF704700002010024079
:100F7000704710B500F002F810BD00000CB500205D
:100F8000019000903348006840F480303149086097
:100F900000BF3048006800F4003000900198401C09
:100FA0000190009818B90198B0F5A06FF1D12948C7
:100FB000006800F4003010B10120009001E0002032
:100FC00000900098012843D12348006840F01000A9
:100FD000214908600846006820F0030008600846C0
:100FE000006840F0020008601A48406819494860EB
:100FF0000846406848600846406840F480604860A1
:101000000846406820F47C1048600846406840F478
:10101000E81048600846006840F08070086000BF33
:101020000C48006800F000700028F9D009484068BA
:1010300020F00300074948600846406840F002007D
:10104000486000BF0348406800F00C000828F9D150
:101050000CBD00000010024000200240042808D10E
:101060004FF0E021096941F004014FF0E0221161E5
:1010700007E04FF0E021096921F004014FF0E02280
:10108000116170477047000010B51348006840F0C8
:1010900001001149086008464068104908400E499F
:1010A0004860084600680E4908400B490860084639
:1010B000006820F4802008600846406820F4FE00A4
:1010C00048604FF41F008860FFF753FF4FF0006047
:1010D0000449086010BD0000001002400000FFF845
:1010E000FFFFF6FE08ED00E010B501210D4800F00D
:1010F00031F8A8B101210B4800F01DF80A4800782A
:10110000401C094908703220FFF700FC06480078AF
:101110000A2805D1002004490870012003490870FD
:1011200010BD0000000C0040110000202100002034
:10113000CA4302827047CA430282704721B10288C3
:1011400042F00102028004E002884FF6FE731A406A
:101150000280704702460020138A0B400BB1012029
:1011600000E0002070471AB183890B43838102E0BD
:1011700083898B4383817047002202881D4B9842EC
:101180000ED01D4B98420BD0B0F1804F08D01B4BB6
:10119000984205D01A4B984202D01A4B984204D17B
:1011A0004FF68F731A404B881A43174B984207D05B
:1011B000164B984204D04FF6FF431A40CB881A438F
:1011C00002808B8883850B8803850A4B98420BD05D
:1011D000094B984208D00E4B984205D00D4B9842CF
:1011E00002D00D4B984201D10B7A038601238382F2
:1011F00070470000002C0140003401400004004012
:1012000000080040000C00400010004000140040A6
:1012100000400140004401400048014010B540F248
:101220002551F64801F0DBFC00287CD0F34801F0A2
:1012300091FDC4B240F22551F04801F0B5FCF048F0
:10124000007804280BDAAA2C05D1ED480078401C60
:10125000EB490870CBE00020E9490870C7E0E84896
:1012600000780A2870DAE648007803286CDDE44844
:101270000078001F062868D2DFE800F003156E80B2
:10128000929F54B9DE480078401CDD490870DD4863
:1012900000782044DB490870A1E00020D84908709C
:1012A000D849087000BF022C0DD10220D649087021
:1012B000D3480078401CD2490870D24800782044B6
:1012C000D04908708BE00D2C0DD10D20CE4908704F
:1012D000CB480078401CCA490870CA4800782044AE
:1012E000C84908707BE00F2C0DD10F20C64908704B
:1012F000C3480078401CC2490870C24800782044A6
:10130000C04908706BE0102C0ED11020BE49087047
:10131000BB480078401CBA490870BA48007820449D
:10132000B84908705BE0E5E0142C0FD11420B649F1
:101330000870B3480078401CB1490870B148007883
:101340002044B04908704AE04AE047E00020AC4938
:101350000870AC49087000BF54B9A9480078401C17
:10136000A7490870A74800782044A649087036E0CD
:101370000020A3490870A349087000BF54B9A048D1
:101380000078401C9E4908709E48007820449D4982
:10139000087024E000209A4908709A49087000BF3C
:1013A0009A48047096480078401C95490870954802
:1013B000007820449349087011E09448007800EBCD
:1013C0000420924908708E480078401C8C490870AF
:1013D0008C48007820448B49087000E000BF06E08C
:1013E000874800780A2802D1002089490870864879
:1013F000007802287ED1864800780028FAD18048FB
:101400000078092876DD7E480078BE2873DA7C48AB
:1014100000780A380F2190FBF1F201FB12007D49A0
:101420000870084600780F2866D2DFE800F0081A36
:1014300036496A7D9AB7D4FFFDFCFBFAF90076487D
:10144000007800EB8000754921F820406D48007855
:1014500020446C4908706A480078401C684908704C
:1014600085E16D48007800EB80006C4931F8200080
:1014700000EB042000B26849097801EB8101674A5A
:1014800022F821005F48007820445E4908705C48DB
:101490000078401C5A49087069E15F48007800EB09
:1014A00080005E4901EB800044805648007820446B
:1014B0005449087052480078401C5149087056E160
:1014C0005548007800EB8000544901EB80004088CB
:1014D00000EB04205049097801EB81014F4A02EBEF
:1014E00081014880474800782044464908704448B4
:1014F000007802E0AAE13BE138E1401C4049087075
:1015000035E14548007800EB8000444901EB80005C
:1015100044603C48007820443A49087038480078D4
:10152000401C3749087022E13B48007800EB8000FE
:101530003A4901EB8000406800EB04203649097805
:1015400001EB8101354A02EB810148602D480078AA
:1015500020442C4908702A480078401C284908700B
:1015600005E12D48007800EB80002C4901EB80005C
:10157000406800EB04402849097801EB8101274AC3
:1015800002EB810148601F48007820441D49087023
:101590001B480078401C1A490870E8E01E48007893
:1015A00000EB80001D4901EB8000406800EB046007
:1015B0001949097801EB8101184A02EB8101486061
:1015C0001048007820440F4908700D480078401CEE
:1015D0000B490870CBE01048007800EB80000F4901
:1015E00001EB800004720748007820440549087028
:1015F00003480078401C02490870B8E0004C0040E5
:1016000088000020890000208B0000208C00002032
:1016100094000020950000208A000020D0060020C1
:1016200081E06DE04FE031E013E0FFE788480078AB
:1016300000EB8000874901EB8000C4608648007899
:1016400020448549087085480078401C834908700B
:101650008DE07F48007800EB80007E4901EB800040
:10166000C06800EB04207A49097801EB8101794ACE
:1016700002EB8101C8607848007820447649087000
:1016800076480078401C7549087070E07048007812
:1016900000EB80006F4901EB8000C06800EB044064
:1016A0006B49097801EB81016A4A02EB8101C8604C
:1016B0006948007820446849087068480078401CF0
:1016C0006649087053E06248007800EB8000614989
:1016D00001EB8000C06800EB04605D49097801EB14
:1016E00081015C4A02EB8101C8605B4800782044BC
:1016F0005949087059480078401C5849087036E02C
:101700005348007800EB8000524901EB80000482CE
:101710005148007820445049087050480078401CD7
:101720004E49087023E04A48007800EB80004949A0
:1017300001EB8000008A00EB042000B244490978E4
:1017400001EB8101434A02EB8101088242480078A3
:1017500020444149087041480078401C3F490870C6
:101760003B480078401C3A49087000E000BF00BFC9
:101770003A480078BE280CD13948046037480078D0
:10178000401C3649087034480078204432490870BB
:101790005CE032480078BF2810D13148006800EB87
:1017A00004202F4908602D480078401C2B49087000
:1017B0002948007820442849087047E027480078E5
:1017C000C02810D12648006800EB04402449086076
:1017D00022480078401C214908701F4800782044A6
:1017E0001D49087032E01D480078C12810D11C48FE
:1017F000006800EB04601A49086018480078401C33
:1018000016490870144800782044134908701DE0F8
:1018100012480078C22819D10F480078844206D1B6
:1018200001F0AAFB0F480088401C0E4908800948B7
:1018300000880D4908800020074908700749087092
:1018400001200A49087000200149087010BD0000FD
:101850008A000020D0060020890000208800002097
:10186000900000200C0000200400002094000020C4
:1018700010B540F22551F64801F0B1F900287CD0AE
:10188000F34801F067FAC4B240F22551F04801F084
:101890008BF9F048007804280BDAAA2C05D1ED4822
:1018A0000078401CEB490870CBE00020E949087043
:1018B000C7E0E84800780A2870DAE648007803288C
:1018C0006CDDE4480078001F062868D2DFE800F0ED
:1018D00003156E80929F54B9DE480078401CDD49A4
:1018E0000870DD4800782044DB490870A1E0002042
:1018F000D8490870D849087000BF022C0DD10220C9
:10190000D6490870D3480078401CD2490870D248A4
:1019100000782044D04908708BE00D2C0DD10D20AB
:10192000CE490870CB480078401CCA490870CA48A4
:1019300000782044C84908707BE00F2C0DD10F209F
:10194000C6490870C3480078401CC2490870C248A4
:1019500000782044C04908706BE0102C0ED1102094
:10196000BE490870BB480078401CBA490870BA48A4
:1019700000782044B84908705BE0E5E0142C0FD1F2
:101980001420B6490870B3480078401CB14908706B
:10199000B14800782044B04908704AE04AE047E086
:1019A0000020AC490870AC49087000BF54B9A94880
:1019B0000078401CA7490870A74800782044A64931
:1019C000087036E00020A3490870A349087000BFE2
:1019D00054B9A0480078401C9E4908709E48007881
:1019E00020449D49087024E000209A4908709A49D3
:1019F000087000BF9A48047096480078401C9549CA
:101A000008709548007820449349087011E0944884
:101A1000007800EB0420924908708E480078401C42
:101A20008C4908708C48007820448B49087000E08D
:101A300000BF06E0874800780A2802D100208949C3
:101A400008708648007802287ED1864800780028F1
:101A5000FAD180480078092876DD7E480078BE28D3
:101A600073DA7C4800780A380F2190FBF1F201FB11
:101A700012007D490870084600780F2866D2DFE81A
:101A800000F0081A36496A7D9AB7D4FFFDFCFBFACC
:101A9000F9007648007800EB8000754921F8204075
:101AA0006D48007820446C4908706A480078401CF2
:101AB0006849087085E16D48007800EB80006C494A
:101AC00031F8200000EB042000B26849097801EBEE
:101AD0008101674A22F821005F48007820445E496E
:101AE00008705C480078401C5A49087069E15F48FA
:101AF000007800EB80005E4901EB8000448056488E
:101B0000007820445449087052480078401C5149DC
:101B1000087056E15548007800EB8000544901EB0D
:101B20008000408800EB04205049097801EB8101D6
:101B30004F4A02EB810148804748007820444649DB
:101B400008704448007802E0AAE13BE138E1401C1B
:101B50004049087035E14548007800EB8000444971
:101B600001EB800044603C48007820443A4908700A
:101B700038480078401C3749087022E13B4800781B
:101B800000EB80003A4901EB8000406800EB042044
:101B90003649097801EB8101354A02EB8101486041
:101BA0002D48007820442C4908702A480078401CB1
:101BB0002849087005E12D48007800EB80002C4989
:101BC00001EB8000406800EB04402849097801EBF4
:101BD0008101274A02EB810148601F4800782044B8
:101BE0001D4908701B480078401C1A490870E8E03D
:101BF0001E48007800EB80001D4901EB8000406822
:101C000000EB04601949097801EB8101184A02EBE5
:101C1000810148601048007820440F4908700D4841
:101C20000078401C0B490870CBE01048007800EBAE
:101C300080000F4901EB80000472074800782044BF
:101C40000549087003480078401C02490870B8E054
:101C500000500040A0000020A1000020A3000020B0
:101C6000A4000020AC000020AD000020A200002055
:101C7000D407002081E06DE04FE031E013E0FFE7A2
:101C80008848007800EB8000874901EB8000C46041
:101C90008648007820448549087085480078401CB3
:101CA000834908708DE07F48007800EB80007E4912
:101CB00001EB8000C06800EB04207A49097801EB51
:101CC0008101794A02EB8101C8607848007820449C
:101CD0007649087076480078401C7549087070E0B5
:101CE0007048007800EB80006F4901EB8000C0680D
:101CF00000EB04406B49097801EB81016A4A02EB71
:101D00008101C860694800782044684908706848C3
:101D10000078401C6649087053E06248007800EB88
:101D20008000614901EB8000C06800EB04605D4900
:101D3000097801EB81015C4A02EB8101C8605B48D4
:101D4000007820445949087059480078401C584987
:101D5000087036E05348007800EB8000524901EBF0
:101D6000800004825148007820445049087050484F
:101D70000078401C4E49087023E04A48007800EB88
:101D80008000494901EB8000008A00EB042000B28A
:101D90004449097801EB8101434A02EB8101088241
:101DA0004248007820444149087041480078401C6E
:101DB0003F4908703B480078401C3A49087000E0F1
:101DC00000BF00BF3A480078BE280CD139480460F3
:101DD00037480078401C3649087034480078204461
:101DE000324908705CE032480078BF2810D1314891
:101DF000006800EB04202F4908602D480078401C43
:101E00002B4908702948007820442849087047E089
:101E100027480078C02810D12648006800EB04400D
:101E20002449086022480078401C214908701F4856
:101E3000007820441D49087032E01D480078C12810
:101E400010D11C48006800EB04601A49086018486B
:101E50000078401C16490870144800782044134943
:101E600008701DE012480078C22819D10F48007888
:101E7000844206D101F0E6F80F480088401C0E4964
:101E80000880094800880D4908800020074908702B
:101E90000749087001200A490870002001490870AC
:101EA00010BD0000A2000020D4070020A1000020E7
:101EB000A0000020A80000200E0000200600002046
:101EC000AC00002010B540F22551044800F087FE18
:101ED00018B1024800F03EFFC4B210BD0038014006
:101EE00000B5002200BF05E00449885C01F048FC11
:101EF000501CC2B20B2AF7DB00BD0000BC00002062
:101F000010B540F22551F64800F069FE00287CD05B
:101F1000F34800F01FFFC4B240F22551F04800F032
:101F200043FEF048007804280BDAAA2C05D1ED48CE
:101F30000078401CEB490870CBE00020E9490870AC
:101F4000C7E0E84800780A2870DAE64800780328F5
:101F50006CDDE4480078001F062868D2DFE800F056
:101F600003156E80929F54B9DE480078401CDD490D
:101F70000870DD4800782044DB490870A1E00020AB
:101F8000D8490870D849087000BF022C0DD1022032
:101F9000D6490870D3480078401CD2490870D2480E
:101FA00000782044D04908708BE00D2C0DD10D2015
:101FB000CE490870CB480078401CCA490870CA480E
:101FC00000782044C84908707BE00F2C0DD10F2009
:101FD000C6490870C3480078401CC2490870C2480E
:101FE00000782044C04908706BE0102C0ED11020FE
:101FF000BE490870BB480078401CBA490870BA480E
:1020000000782044B84908705BE0E5E0142C0FD15B
:102010001420B6490870B3480078401CB1490870D4
:10202000B14800782044B04908704AE04AE047E0EF
:102030000020AC490870AC49087000BF54B9A948E9
:102040000078401CA7490870A74800782044A6499A
:10205000087036E00020A3490870A349087000BF4B
:1020600054B9A0480078401C9E4908709E480078EA
:1020700020449D49087024E000209A4908709A493C
:10208000087000BF9A48047096480078401C954933
:1020900008709548007820449349087011E09448EE
:1020A000007800EB0420924908708E480078401CAC
:1020B0008C4908708C48007820448B49087000E0F7
:1020C00000BF06E0874800780A2802D1002089492D
:1020D00008708648007802287ED18648007800285B
:1020E000FAD180480078092876DD7E480078BE283D
:1020F00073DA7C4800780A380F2190FBF1F201FB7B
:1021000012007D490870084600780F2866D2DFE883
:1021100000F0081A36496A7D9AB7D4FFFDFCFBFA35
:10212000F9007648007800EB8000754921F82040DE
:102130006D48007820446C4908706A480078401C5B
:102140006849087085E16D48007800EB80006C49B3
:1021500031F8200000EB042000B26849097801EB57
:102160008101674A22F821005F48007820445E49D7
:1021700008705C480078401C5A49087069E15F4863
:10218000007800EB80005E4901EB800044805648F7
:10219000007820445449087052480078401C514946
:1021A000087056E15548007800EB8000544901EB77
:1021B0008000408800EB04205049097801EB810140
:1021C0004F4A02EB81014880474800782044464945
:1021D00008704448007802E0AAE13BE138E1401C85
:1021E0004049087035E14548007800EB80004449DB
:1021F00001EB800044603C48007820443A49087074
:1022000038480078401C3749087022E13B48007884
:1022100000EB80003A4901EB8000406800EB0420AD
:102220003649097801EB8101354A02EB81014860AA
:102230002D48007820442C4908702A480078401C1A
:102240002849087005E12D48007800EB80002C49F2
:1022500001EB8000406800EB04402849097801EB5D
:102260008101274A02EB810148601F480078204421
:102270001D4908701B480078401C1A490870E8E0A6
:102280001E48007800EB80001D4901EB800040688B
:1022900000EB04601949097801EB8101184A02EB4F
:1022A000810148601048007820440F4908700D48AB
:1022B0000078401C0B490870CBE01048007800EB18
:1022C00080000F4901EB8000047207480078204429
:1022D0000549087003480078401C02490870B8E0BE
:1022E00000440040700000207100002073000020B6
:1022F000740000207C0000207D000020720000207F
:10230000CC05002081E06DE04FE031E013E0FFE715
:102310008848007800EB8000874901EB8000C460AA
:102320008648007820448549087085480078401C1C
:10233000834908708DE07F48007800EB80007E497B
:1023400001EB8000C06800EB04207A49097801EBBA
:102350008101794A02EB8101C86078480078204405
:102360007649087076480078401C7549087070E01E
:102370007048007800EB80006F4901EB8000C06876
:1023800000EB04406B49097801EB81016A4A02EBDA
:102390008101C8606948007820446849087068482D
:1023A0000078401C6649087053E06248007800EBF2
:1023B0008000614901EB8000C06800EB04605D496A
:1023C000097801EB81015C4A02EB8101C8605B483E
:1023D000007820445949087059480078401C5849F1
:1023E000087036E05348007800EB8000524901EB5A
:1023F00080000482514800782044504908705048B9
:102400000078401C4E49087023E04A48007800EBF1
:102410008000494901EB8000008A00EB042000B2F3
:102420004449097801EB8101434A02EB81010882AA
:102430004248007820444149087041480078401CD7
:102440003F4908703B480078401C3A49087000E05A
:1024500000BF00BF3A480078BE280CD1394804605C
:1024600037480078401C36490870344800782044CA
:10247000324908705CE032480078BF2810D13148FA
:10248000006800EB04202F4908602D480078401CAC
:102490002B4908702948007820442849087047E0F3
:1024A00027480078C02810D12648006800EB044077
:1024B0002449086022480078401C214908701F48C0
:1024C000007820441D49087032E01D480078C1287A
:1024D00010D11C48006800EB04601A4908601848D5
:1024E0000078401C164908701448007820441349AD
:1024F00008701DE012480078C22819D10F480078F2
:10250000844206D100F0D2FC0F480088401C0E49DE
:102510000880094800880D49088000200749087094
:102520000749087001200A49087000200149087015
:1025300010BD000072000020CC05002071000020BA
:10254000700000207800002008000020000000201B
:102550007C00002010B540F22551F64800F03FFB0A
:1025600000287CD0F34800F0F5FBC4B240F22551BE
:10257000F04800F019FBF048007804280BDAAA2C88
:1025800005D1ED480078401CEB490870CBE00020F5
:10259000E9490870C7E0E84800780A2870DAE64898
:1025A000007803286CDDE4480078001F062868D214
:1025B000DFE800F003156E80929F54B9DE48007882
:1025C000401CDD490870DD4800782044DB49087074
:1025D000A1E00020D8490870D849087000BF022C3B
:1025E0000DD10220D6490870D3480078401CD2494A
:1025F0000870D24800782044D04908708BE00D2C38
:102600000DD10D20CE490870CB480078401CCA4936
:102610000870CA4800782044C84908707BE00F2C35
:102620000DD10F20C6490870C3480078401CC2492C
:102630000870C24800782044C04908706BE0102C34
:102640000ED11020BE490870BB480078401CBA4922
:102650000870BA4800782044B84908705BE0E5E0AB
:10266000142C0FD11420B6490870B3480078401CD0
:10267000B1490870B14800782044B04908704AE078
:102680004AE047E00020AC490870AC49087000BF40
:1026900054B9A9480078401CA7490870A748007899
:1026A0002044A649087036E00020A3490870A349D9
:1026B000087000BF54B9A0480078401C9E490870BB
:1026C0009E48007820449D49087024E000209A49E3
:1026D00008709A49087000BF9A48047096480078BC
:1026E000401C95490870954800782044934908702B
:1026F00011E09448007800EB0420924908708E485D
:102700000078401C8C4908708C48007820448B4924
:10271000087000E000BF06E0874800780A2802D170
:102720000020894908708648007802287ED18648B2
:1027300000780028FAD180480078092876DD7E48A4
:102740000078BE2873DA7C4800780A380F2190FBA5
:10275000F1F201FB12007D490870084600780F284D
:1027600066D2DFE800F0081A36496A7D9AB7D4FFCE
:10277000FDFCFBFAF9007648007800EB8000754913
:1027800021F820406D48007820446C4908706A4860
:102790000078401C6849087085E16D48007800EBBE
:1027A00080006C4931F8200000EB042000B2684939
:1027B000097801EB8101674A22F821005F4800781F
:1027C00020445E4908705C480078401C5A490870F3
:1027D00069E15F48007800EB80005E4901EB800012
:1027E0004480564800782044544908705248007884
:1027F000401C5149087056E15548007800EB8000B4
:10280000544901EB8000408800EB042050490978CE
:1028100001EB81014F4A02EB810148804748007873
:102820002044464908704448007802E0AAE13BE1B0
:1028300038E1401C4049087035E14548007800EB1C
:102840008000444901EB800044603C48007820440B
:102850003A49087038480078401C3749087022E12E
:102860003B48007800EB80003A4901EB800040686B
:1028700000EB04203649097801EB8101354A02EB6F
:10288000810148602D48007820442C4908702A486E
:102890000078401C2849087005E12D48007800EBBD
:1028A00080002C4901EB8000406800EB044028497F
:1028B000097801EB8101274A02EB810148601F483A
:1028C000007820441D4908701B480078401C1A49B4
:1028D0000870E8E01E48007800EB80001D4901EB1D
:1028E0008000406800EB04601949097801EB810120
:1028F000184A02EB810148601048007820440F49D3
:1029000008700D480078401C0B490870CBE0104857
:10291000007800EB80000F4901EB8000047207484B
:10292000007820440549087003480078401C02499B
:102930000870B8E00048004058000020590000200E
:102940005B0000205C000020640000206500002087
:102950005A000020C800002081E06DE04FE031E027
:1029600013E0FFE78848007800EB8000874901EB1F
:102970008000C460864800782044854908708548F6
:102980000078401C834908708DE07F48007800EB98
:1029900080007E4901EB8000C06800EB04207A498A
:1029A000097801EB8101794A02EB8101C86078481E
:1029B000007820447649087076480078401C7549B4
:1029C000087070E07048007800EB80006F4901EB00
:1029D0008000C06800EB04406B49097801EB81017D
:1029E0006A4A02EB8101C86069480078204468495E
:1029F000087068480078401C6649087053E06248D7
:102A0000007800EB8000614901EB8000C06800EBBA
:102A100004605D49097801EB81015C4A02EB8101A8
:102A2000C8605B48007820445949087059480078CC
:102A3000401C5849087036E05348007800EB80008D
:102A4000524901EB800004825148007820445049EB
:102A5000087050480078401C4E49087023E04A48EE
:102A6000007800EB8000494901EB8000008A00EB10
:102A7000042000B24449097801EB8101434A02EB8A
:102A80008101088242480078204441490870414849
:102A90000078401C3F4908703B480078401C3A4988
:102AA000087000E000BF00BF3A480078BE280CD193
:102AB0003948046037480078401C3649087034486B
:102AC00000782044324908705CE032480078BF2822
:102AD00010D13148006800EB04202F4908602D48D0
:102AE0000078401C2B490870294800782044284968
:102AF000087047E027480078C02810D126480068B1
:102B000000EB04402449086022480078401C214919
:102B100008701F48007820441D49087032E01D48A5
:102B20000078C12810D11C48006800EB04601A49E5
:102B3000086018480078401C16490870144800784E
:102B40002044134908701DE012480078C22819D1AA
:102B50000F480078844206D100F006F90F4800883B
:102B6000401C0E490880094800880D490880002053
:102B7000074908700749087001200A4908700020B9
:102B80000149087010BD00005A000020C800002054
:102B90005900002058000020600000200A0000209A
:102BA000020000206400002010B50022002340F63F
:102BB0006A14A14200D100BF0A1201249440A3B2BA
:102BC000DC43048010BD21B1828942F4005282812D
:102BD00004E082894DF6FF731A408281704770B518
:102BE0000246002400230025002040F66A16B14268
:102BF00000D100BFC1F3421501F01F03012606FA00
:102C000003F3012D02D19689334006E0022D02D153
:102C1000168A334001E0968A33400C12012606FAE8
:102C200004F41688344013B10CB1012000E00020F8
:102C300070BDF0B50346002400260025002040F6B4
:102C40006A17B94200D100BF1846C1F3421401F01F
:102C50001F06012707FA06F5012C01D10C3004E00C
:102C6000022C01D1103000E014301AB107682F4354
:102C7000076002E00768AF430760F0BD2DE9F04749
:102C800086B005460E460024A24600BFA146002796
:102C9000B08900B100BF2F462C8A4CF6FF7004406B
:102CA000F08804432C82AC894EF6F3100440B088BF
:102CB00031890843718908430443AC81AC8A4FF6DB
:102CC000FF400440B0890443AC8201A8FEF7CCF871
:102CD0001F48874202D1DDF810A001E0DDF80CA00A
:102CE000A88900F4004040B10AEBCA0000EB0A10CA
:102CF00031684900B0FBF1F807E00AEBCA0000EBCD
:102D00000A1031688900B0FBF1F86420B8FBF0F0DC
:102D100004012009642101FB1089A88900F4004006
:102D200040B1322000EBC900B0FBF1F000F0070029
:102D3000044308E0322000EB09106421B0FBF1F0FD
:102D400000F00F0004432C8106B0BDE8F0870000BE
:102D50000038014001468888C0F30800704700BF72
:102D6000FEE700BF7047000085B000204AE000EB9E
:102D70008001464A32F82110F1B345490988491CBF
:102D8000434A1180BDF8001000EB80023F4B33F83E
:102D90002220114409B2ADF80010BDF8021000EB7A
:102DA000800203EB82025288114489B2ADF802100E
:102DB00000EB800203EB82020199526811440191F9
:102DC0009DF8081000EB800203EB8202127A114496
:102DD000C9B28DF8081000EB800203EB8202039960
:102DE000D26811440391BDF8101000EB800203EB90
:102DF0008202128A114400E002E009B2ADF810101C
:102E0000411CC8B20C28B2DB2149098800293AD0FC
:102E1000BDF900101E4A128891FBF2F11D4A118083
:102E2000BDF802101A4A128891FBF2F11A4A118079
:102E3000174A12880199B1FBF2F1184A11609DF806
:102E40000810134A128891FBF2F1154A1170104ACA
:102E500012880399B1FBF2F1124A1160BDF910100A
:102E60000B4A128891FBF2F10F4A11800021ADF854
:102E70000010ADF8021001918DF808100391ADF823
:102E80001010034A118005B070470000C8000020F0
:102E9000680000201200002014000020180000200C
:102EA000100000201C0000201600002000204BE035
:102EB00000EB80012C4A32F82110002942D02B4926
:102EC0000988491C294A11802949098800EB800298
:102ED000254B33F82220114409B2254A11801146AE
:102EE000498800EB800203EB820252881144204A99
:102EF00051801146496800EB800203EB8202526860
:102F000011441B4A51601146097A00EB800203EB21
:102F10008202127A1144164A11721146C96800EBF6
:102F2000800203EB8202D2681144114AD16011463B
:102F3000098A00EB800203EB8202128A114409B273
:102F40000B4A1182411CC8B20C28B1DB0749098821
:102F500041B10749B1F90010044A128891FBF2F11E
:102F6000044A118070470000CC050020800000203A
:102F7000BC0600200000002000204BE000EB800198
:102F80002C4A32F82110002942D02B490988491CCB
:102F9000294A11802949098800EB8002254B33F822
:102FA0002220114409B2254A11801146498800EBBC
:102FB000800203EB820252881144204A518011465C
:102FC000496800EB800203EB8202526811441B4AFD
:102FD00051601146097A00EB800203EB8202127AFB
:102FE0001144164A11721146C96800EB800203EBC6
:102FF0008202D2681144114AD1601146098A00EB5D
:10300000800203EB8202128A114409B20B4A118238
:10301000411CC8B20C28B1DB0749098841B10749F6
:10302000B1F90010044A128891FBF2F1044A1180B0
:1030300070470000D006002098000020C007002044
:103040000400002000204BE000EB80012C4A32F805
:103050002110002942D02B490988491C294A118096
:103060002949098800EB8002254B33F822201144BE
:1030700009B2254A11801146498800EB800203EB12
:10308000820252881144204A51801146496800EB5F
:10309000800203EB8202526811441B4A51601146C0
:1030A000097A00EB800203EB8202127A1144164A7D
:1030B00011721146C96800EB800203EB8202D268EC
:1030C0001144114AD1601146098A00EB800203EBDA
:1030D0008202128A114409B20B4A1182411CC8B201
:1030E0000C28B1DB0749098841B10749B1F9001043
:1030F000044A128891FBF2F1044A118070470000E3
:10310000D4070020B0000020C408002006000020E2
:1031100000B57B20204908702048008800124870C4
:103120001E48007888701E4800880012C8701C482D
:10313000007808711B48008800124871194800780F
:103140008871194800880012C87117480078087201
:10315000FDF726FB104948727D2088720F480088D1
:103160000012124908700D48007848700C48008819
:10317000001288700A480078C8700A480088001257
:103180000871084800784871074800880012887163
:1031900005480078C87100BDBC0000200000002078
:1031A0000200002004000020060000202200002071
:1031B00010B56FF00400FDF751FF0A4800680A4996
:1031C000B0FBF1F0094908700846007800EB4001B7
:1031D000C1EBC0104FF6FF7101EAC000044908803E
:1031E00010BD00002C00002000127A0054000020C6
:1031F000560000200146114A12884A434FF0E0234E
:103200005A6100229A611A46126942F001021A615B
:1032100000BF4FF0E022106900F001021AB100F483
:103220008032002AF5D04FF0E022126922F001022C
:103230004FF0E0231A6100229A6170475600002087
:1032400008B54FF4A060FDF7D5FBFFF7B1FF0220F2
:10325000FDF744FB0120FDF741FBFDF773FBFDF794
:103260001FFC002006230222032100900120FDF70D
:1032700055F84FF4E13000F033FA4FF4613000F0CC
:10328000E1F84FF4613000F02FF94FF4613000F0B5
:103290007FF94FF4613000F0CFF900F09FF811E0B2
:1032A00000F022F80848007801280BD100200649D8
:1032B0000870FFF72DFFFEF713FE044940F201608E
:1032C000FDF7F8F8ECE700002100002022000020C4
:1032D00010B50246012000E050430B1EA1F101048D
:1032E000E1B2F9D110BD000008B54FF48061294862
:1032F000FCF78DFF28A200210846FDF73FFD29A21B
:1033000000216E20FDF73AFD0C2005230090264891
:10331000028800214420FDF7E7FC24A20A210020B6
:10332000FDF72CFD1FA20A216E20FDF727FD0C20C2
:1033300005230090204802880A214420FDF7D4FC90
:103340001EA214210020FDF719FD16A214216E20E3
:10335000FDF714FD0C20052300901B480288142162
:103360004420FDF7C1FC19A21E210020FDF706FD37
:103370000CA21E216E20FDF701FD0C2005230090FC
:10338000154802881E214420FDF7AEFCFDF732FCF3
:1033900008BD0000CC01002044697374616E636550
:1033A000313A00006D6D0000000000204469737424
:1033B000616E6365323A0000020000204469737454
:1033C000616E6365333A0000040000204469737441
:1033D000616E6365343A0000060000201FB50121CC
:1033E0000820FDF721FD3120ADF8080041F61F400F
:1033F000ADF804000020ADF80A00ADF8060001A900
:103400000F48FDF7B9FE32208DF8000001208DF83D
:10341000030000208DF801008DF802006846FDF7DA
:10342000B1FA80210648FDF783FE012211460448C7
:10343000FDF799FE01210248FDF780FE1FBD000047
:10344000000C004010B586B0044601210420FDF7B1
:10345000FBFC01214804FDF7E7FC0420ADF8140053
:1034600018208DF8170003208DF8160005A91C48B8
:10347000FDF7A5F90820ADF8140004208DF8170019
:1034800005A91748FDF79BF926208DF800000020BC
:103490008DF8010001208DF802008DF803006846C8
:1034A000FDF770FA01940020ADF80800ADF80A00AD
:1034B000ADF80C00ADF810000C20ADF80E0001A91D
:1034C0000848FFF7DBFB012240F225510548FFF7D2
:1034D000B0FB01210348FFF776FB06B010BD0000EA
:1034E000000801400044004010B586B004460121A8
:1034F0000820FDF7A9FC01218804FDF795FC4FF495
:103500008060ADF8140003208DF8160018208DF8A7
:10351000170005A91C48FDF752F94FF40060ADF8FB
:10352000140004208DF8170005A91748FDF747F986
:1035300027208DF8000000208DF8010001208DF873
:1035400002008DF803006846FDF71CFA0194002084
:10355000ADF80800ADF80A00ADF80C00ADF81000A9
:103560000C20ADF80E0001A90848FFF787FB0122E7
:1035700040F225510548FFF75CFB01210348FFF7A6
:1035800022FB06B010BD0000000C014000480040C6
:1035900010B586B0044601211020FDF755FC01212D
:1035A000C804FDF741FC4FF48060ADF8140018200A
:1035B0008DF8170003208DF8160005A91C48FDF7AB
:1035C000FEF84FF40060ADF8140004208DF81700E9
:1035D00005A91748FDF7F3F834208DF80000002006
:1035E0008DF8010001208DF802008DF80300684677
:1035F000FDF7C8F901940020ADF80800ADF80A0005
:10360000ADF80C00ADF810000C20ADF80E0001A9CB
:103610000848FFF733FB012240F225510548FFF728
:1036200008FB01210348FFF7CEFA06B010BD0000E9
:1036300000100140004C004010B586B00446012146
:103640003020FDF701FC01210805FDF7EDFB4FF4EB
:103650008050ADF8140018208DF8170003208DF865
:10366000160005A91B48FDF7AAF80420ADF81400C0
:103670008DF8170005A91848FDF7A1F835208DF839
:10368000000000208DF8010001208DF802008DF867
:1036900003006846FDF776F901940020ADF80800B4
:1036A000ADF80A00ADF80C00ADF810000C20ADF834
:1036B0000E0001A90948FFF7E1FA012240F2255165
:1036C0000648FFF7B6FA01210448FFF77CFA06B076
:1036D00010BD0000001001400014014000500040E7
:1036E00010B586B00446012144F20400FDF7ACFB9E
:1036F0004FF40070ADF8140003208DF81600182068
:103700008DF8170005A91C48FDF759F84FF48060A3
:10371000ADF8140004208DF8170005A91648FDF730
:103720004EF825208DF8000003208DF801008DF85B
:10373000020001208DF803006846FDF723F901948B
:103740000020ADF80800ADF80A00ADF80C00ADF8A7
:1037500010000C20ADF80E0001A90848FFF78EFA02
:10376000012240F225510548FFF763FA0121034881
:10377000FFF729FA06B010BD0008014000380140EB
:103780000549088000BF0449091F098801F040016C
:103790000029F8D070470000043801400000000004
:1037A0000000000000000000000000003F4000009A
:1037B0000000000000003000400030004000000029
:1037C00009000BC03D000BC03D00090018C024409B
:1037D0007FE0224031800000180024C01B000D80D3
:1037E0003240018003801C4027401C80074000407D
:1037F0001000600000000000000000000000000059
:1038000000001F80204040200000402020401F80FA
:1038100000000000090006001F80060009000000EB
:10382000040004003F800400040000000010006059
:103830000000000000000000040004000400040078
:103840000400000000000040000000000000000034
:10385000002001C006003800400000001F8020400A
:10386000204020401F800000000010403FC000406A
:103870000000000018C021402240244018400000F1
:1038800010802040244024401B80000002000D00D6
:1038900011003FC0014000003C80244024402440EF
:1038A000238000001F802440244034400380000017
:1038B0003000200027C03800200000001B8024407A
:1038C000244024401B8000001C0022C022402240D3
:1038D0001F80000000000000084000000000000001
:1038E0000000000004600000000000000000040070
:1038F0000A00110020804040090009000900090069
:103900000900000000004040208011000A0004006F
:103910001800200023402400180000001F802040D1
:10392000274029401F400000004007C039000F0019
:1039300001C0004020403FC0244024401B800000C4
:103940001F802040204020403080000020403FC0A9
:10395000204020401F80000020403FC024402E40D7
:1039600030C0000020403FC024402E003000000046
:103970000F001080204022403380020020403FC0D2
:10398000040004003FC02040204020403FC02040B1
:10399000204000000060202020203FC020002000A8
:1039A00020403FC024400B0030C0204020403FC09A
:1039B00020400040004000C03FC03C0003C03C002D
:1039C0003FC0000020403FC00C4023003FC020000B
:1039D0001F802040204020401F80000020403FC02A
:1039E00024402400180000001F802140214020E0D6
:1039F0001FA0000020403FC02440260019C0004006
:103A000018C0244024402240318000003000204073
:103A10003FC020403000000020003F8000400040B8
:103A20003F80200020003E0001C007003800200039
:103A3000380007C03C0007C038000000204039C0F3
:103A4000060039C0204000002000384007C0384040
:103A500020000000304021C02640384020C0000037
:103A6000000000007FE040204020000000007000C7
:103A70000C000380004000000000402040207FE058
:103A800000000000000020004000200000000000B6
:103A900000100010001000100010001000000000C6
:103AA00040000000000000000000028005400540CA
:103AB00003C0004020003FC00440044003800000D9
:103AC0000000038004400440064000000000038022
:103AD000044024403FC000400000038005400540F2
:103AE00003400000000004401FC024402440200088
:103AF000000002E0055005500650042020403FC061
:103B00000440040003C000400000044027C00040FF
:103B10000000000000100010041027E0000000006A
:103B200020403FC00140070004C004402040204026
:103B30003FC000400040000007C0040007C0040070
:103B400003C00000044007C00440040003C000405C
:103B5000000003800440044003800000041007F0CC
:103B6000045004400380000000000380044004501F
:103B700007F00010044007C00240040004000000E9
:103B8000000006400540054004C00000000004009D
:103B90001F800440004000000400078000400440F3
:103BA00007C000400400070004C0018006000400B4
:103BB000060001C0070001C006000000044006C066
:103BC000010006C0044000000410071004E001805A
:103BD000060004000000044005C006400440000048
:103BE0000000000004007BE0402000000000000016
:103BF0000000FFF000000000000040207BE0040017
:103C00000000000040008000400020002000400034
:103C100000000000000000000000000000000000A4
:103C20000000000000001FCC000C0000000000009D
:103C30000000080030006000080030006000000054
:103C4000022003FC1E20022003FC1E200220000094
:103C500000000E1811043FFF10840C7800000000D3
:103C60000F0010840F3800C0077818840078000017
:103C700000780F8410C411240E9800E4008400081A
:103C80000800680070000000000000000000000054
:103C900000000000000007E01818200440020000A7
:103CA000000040022004181807E000000000000097
:103CB0000240024001800FF00180024002400000FB
:103CC0000080008000800FF80080008000800000ED
:103CD0000001000D000E00000000000000000000C8
:103CE0000000008000800080008000800080008054
:103CF0000000000C000C00000000000000000000AC
:103D00000000000600180060018006001800200076
:103D1000000007F0080810041004080807F000006D
:103D20000000080408041FFC000400040000000058
:103D300000000E0C10141024104411840E0C00000E
:103D400000000C1810041104110412880C700000FB
:103D5000000000E00320042408241FFC00240000CD
:103D600000001F98108411041104108810700000C6
:103D7000000007F008881104110418880070000082
:103D800000001C00100010FC13001C0010000000BC
:103D900000000E3811441084108411440E380000C5
:103DA00000000700088C10441044088807F0000049
:103DB000000000000000030C030C000000000000E5
:103DC00000000000000101060000000000000000EB
:103DD00000000080014002200410080810040000C8
:103DE00002200220022002200220022002200000E5
:103DF00000001004080804100220014000800000A8
:103E000000000E001200100C106C10800F0000005B
:103E100003E00C1813E4142417C4082807D000008A
:103E20000004003C03C41C40074000E4001C0004E4
:103E300010041FFC1104110411040E88007000000E
:103E400003E00C1810041004100410081C100000EB
:103E500010041FFC100410041004080807F00000F0
:103E600010041FFC1104110417C4100408180000EA
:103E700010041FFC1104110017C0100008000000FE
:103E800003E00C181004100410441C7800400000DB
:103E900010041FFC10840080008010841FFC10049C
:103EA0000000100410041FFC1004100400000000A7
:103EB00000030001100110011FFE1000100000009F
:103EC00010041FFC110403801464181C100400006B
:103ED00010041FFC1004000400040004000C000087
:103EE00010041FFC1F0000FC1F001FFC100400003A
:103EF00010041FFC0C04030000E010181FFC10004D
:103F000007F00808100410041004080807F0000067
:103F100010041FFC10841080108010800F0000001F
:103F200007F0081810241024101C080A07F20000DB
:103F300010041FFC1104110011C011300E0C0004FC
:103F400000000E1C11041084108410441C38000062
:103F50001800100010041FFC1004100018000000CE
:103F600010001FF810040004000410041FF81000D3
:103F700010001E0011E0001C007013801C001000D7
:103F80001FC0103C00E01F0000E0103C1FC00000FC
:103F90001004180C163401C001C01634180C10049B
:103FA00010001C00130400FC13041C00100000008F
:103FB0000804101C1064108413041C041018000062
:103FC0000000000000007FFE4002400240020000AE
:103FD000000030000C0003800060001C00030000A3
:103FE00000004002400240027FFE0000000000008E
:103FF00000000000200040004000400020000000C1
:1040000000010001000100010001000100010001A8
:104010000000400040002000000000000000000000
:1040200000000098012401440144014400FC000404
:1040300010001FFC008801040104008800700000CB
:1040400000000070008801040104010400880000E1
:104050000000007000880104010411081FFC000426
:10406000000000F8014401440144014400C800007C
:104070000000010401040FFC1104110411001800D8
:10408000000000D601290129012901C9010600000B
:1040900010041FFC008401000100010400FC000466
:1040A00000000104190419FC0004000400000000D1
:1040B0000000000300010101190119FE00000000C9
:1040C00010041FFC0024004001B4010C0104000096
:1040D0000000100410041FFC000400040000000095
:1040E000010401FC0104010001FC0104010000FCC9
:1040F000010401FC008401000100010400FC000433
:10410000000000F8010401040104010400F80000AB
:10411000010101FF00850104010400880070000016
:1041200000000070008801040104010501FF000186
:104130000104010401FC008401040100018000006D
:10414000000000CC01240124012401240198000076
:1041500000000100010007F8010401040000000054
:10416000010001F8000400040004010801FC00043F
:10417000010001800170000C00100160018001004D
:1041800001F0010C003001C00030010C01F0010011
:1041900000000104018C00740170018C0104000016
:1041A000010101810171000E001801600180010010
:1041B00000000184010C013401440184010C000061
:1041C000000000000000000001003EFC4002400230
:1041D0000000000000000000FFFF000000000000E1
:1041E0000000400240023EFC010000000000000010
:1041F000000060008000800040004000200020009F
:104200002042000800000020BC0000006C010008F3
:10421000DC420008BC0000207C0E00008801000881
:10422000000000000000000000000000000000008E
:10423000000000000000000000000000000000007E
:1042400000000000000000000000000000A24A047E
:104250000000000000000000010203040607080936
:10426000000000000102030401020304060708091C
:10427000020406080000000000000000000000002A
:10428000000000000100000000000000000000002D
:10429000000000000000000000000000010000001D
:1042A000000000000000000000000000000000000E
:1042B00000000000010000000000000000000000FD
:1042C00000000000000000000000000001000000ED
:0C42D000000000000000000000000000E2
:0400000508000131BD
:00000001FF
