:020000040800F2
:10000000105D0020DD010008CB300008512C0008F5
:10001000C73000087D2700080B5B000800000000C7
:100020000000000000000000000000004501000882
:100030008127000800000000890100083D3E0008FB
:10004000F7010008F7010008F7010008F7010008B0
:10005000F7010008F7010008F7010008F7010008A0
:10006000F7010008F7010008F7010008F701000890
:10007000F7010008F7010008F7010008F701000880
:10008000F7010008F7010008F7010008F701000870
:10009000F7010008F7010008F7010008F701000860
:1000A000F7010008F7010008F7010008F701000850
:1000B000F7010008F7010008F7010008F701000840
:1000C000F7010008F7010008F7010008F701000830
:1000D000F701000895500008ED510008DD520008B6
:1000E000F7010008F7010008F7010008F701000810
:1000F000F7010008F7010008F7010008F701000800
:10010000F7010008F7010008F7010008F7010008EF
:10011000A9490008FD4F0008F7010008F701000891
:10012000F7010008F7010008F7010008F7010008CF
:10013000DFF80CD000F0A4FC00480047C16A0008BA
:10014000105D0020224B19680868B0E8F00F80F3BA
:100150000988BFF36F8F4FF0000080F311884EF0D5
:100160000D0E70470000000006480068006880F32C
:10017000088862B661B6BFF34F8FBFF36F8F00DFA1
:1001800000BF00BF08ED00E0EFF30980BFF36F8F01
:100190000F4B1A6820E9F00F106008B54FF05000BF
:1001A00080F31188BFF34F8FBFF36F8F08F0C8F84B
:1001B0004FF0000080F31188BDE808401968086816
:1001C000B0E8F00F80F30988BFF36F8F704700BF6E
:1001D000FC000020EFF305807047000006488047D0
:1001E00006480047FEE7FEE7FEE7FEE7FEE7FEE71C
:1001F000FEE7FEE7FEE7FEE74D3E0008310100089E
:1002000040EA01039B0703D009E008C9121F08C098
:10021000042AFAD203E011F8013B00F8013B521E18
:10022000F9D27047F0B480EA0102D40F4200B2EB79
:10023000410F02D20246084611464A0042D0C30D81
:10024000DDB2C1F3C752AD1A202D35DAC1F3160164
:1002500041F4000204B15242C5F1200602FA06F14F
:100260002A411044B3EBD05F23D0C4B1012DA0EBE1
:10027000C35009DCF0BC4FF0004202EAC352DBB2CB
:1002800000F5000000F059BB400000F1807000EB69
:10029000C350A0F1807040EAD170490009E04908DC
:1002A00041EAC071A0EBC35000F50000400800EB2C
:1002B000C350F0BC00F038BB6142012202EB4101A7
:1002C000001BF6E7F0BC704781F00041AAE780F020
:1002D0000040A7E780EA010210B502F000434000A9
:1002E00022D04A001FD0010E01EB1261C0F356006C
:1002F000C2F3560240F4000042F40002A0FB0220C8
:1003000000047F39140400D0401C50EA124001D48C
:100310004000491EC2B20C0604EBD010401C40083D
:10032000802A02D003E0002010BD20F00100002947
:1003300000DA0020184310BD30B480EA010202F058
:10034000004530F0004221F0004013D090B1C30DC1
:10035000D40DC2F31601C0F31600E41A41F40001F3
:1003600040F400027D34914201D3641C00E0490056
:10037000002C02DA30BC002070474FF4000000234C
:10038000914201D3891A034340084FEA4101F7D152
:1003900051B1914202D14FF0004105E002D24FF03D
:1003A000010101E06FF0010103EBC450284430BCAF
:1003B00000F0BABA2DE9FE4F804681EA0300C00F73
:1003C0000C46009021F0004123F00045B8EB0200FC
:1003D000A94105D24046214690461C460B4602469E
:1003E00023F00040104347D0270DC7F30A00C3F3A2
:1003F0000A510290401A019040286BDAC3F31300AF
:1004000040F4801B0098924620B10023D2EB030AEF
:1004100063EB0B0B01985946C0F14002504600F0C7
:1004200052FA06460D4650465946019A00F06AFABD
:1004300010EB08006141002487EA115284EAE77357
:100440001A4340D0009A62B3019A012A4FEA075238
:1004500015DC001B61EB02014FF0004202EA07527B
:10046000CDE90042001C41F5801132462B4600F0D8
:10047000A1FA03B0BDE8F08F40462146F9E7001B22
:1004800061EB0201001C41F5801300185B4120184C
:10049000A2F5001747EB030140EAD570B6196D418C
:1004A00011E06D084FEA360645EAC0754FEA07527B
:1004B000001B61EB0201001C41F5801149084FEA65
:1004C00030000019514132462B4603B0BDE8F04FD1
:1004D00000F061BA0098012240000023D0EB020234
:1004E00063EBE073009821464FEAE074B8EB00003C
:1004F00061EB0401E9E783F000435BE781F0004131
:1005000058E72DE9FE4F81EA030404F0004421F08E
:10051000004100944FF0000B23F0004350EA010427
:100520005ED052EA03045BD0C3F30A54C1F30A5508
:100530002C44A4F2F3340194A0FB0254C1F3130140
:1005400041F48011C3F3130343F4801301FB02440D
:1005500000FB034E840A970A44EA815447EA835712
:10056000A4FB076802958D0A05FB07854FEA932CCB
:1005700004FB0C542705029D4FEA065847EA16373C
:10058000B5EB08056EEB070C870E920E47EA811754
:1005900042EA8312A7FB0201B6EB0B0164EB0004F5
:1005A0002B0D43EA0C335E1844EB1C50DA465146DF
:1005B000E7FB0201C5F313044FEA0B3343EA14537C
:1005C0004FEA0432019C43EA0603A4F10C040294AE
:1005D000009CCDE900B400F0EDF903B0BDE8F08F68
:1005E00000200146F9E72DE9F04D81EA030404F00B
:1005F000004B21F0004514464FF0000A23F0004163
:1006000050EA050220D054EA01021DD0C5F30A5772
:100610000246C5F31303C1F31300C1F30A5640F4B5
:10062000801543F48013A7EB0608101BD64608F28A
:10063000FD3873EB050002D308F1010801E09218C0
:100640005B41B8F1000F03DA00200146BDE8F08DF0
:1006500000204FF48011064684460EE0171B73EB12
:10066000050705D3121B63EB050306434CEA010C97
:1006700049084FEA300092185B4150EA0107EDD17A
:1006800052EA030012D082EA040083EA050108431B
:1006900005D0101BAB4106D20122002306E0002248
:1006A0004FF0004302E06FF0010253101AEB060016
:1006B0004CEB085110EB0A0041EB0B01BDE8F04D8B
:1006C00000F069B9C10F80EAE0700844CA079623B8
:1006D000002100F032B90EB5C10F80EAE070084485
:1006E000CA07002140F233438DE80E000A460B464C
:1006F00000F060F903B000BD0EB540F23341029145
:100700000021CDE900110A460B4600F053F903B071
:1007100000BD00F0004220F00040C10DC0F3160003
:1007200040F400007F2901DA00207047962903DC9D
:10073000C1F19601C84001E096398840002AF4D002
:100740004042704720F00040C10DC0F3160040F455
:1007500000007F2901DA00207047962903DCC1F1EF
:100760009601C840704796398840704770B5C1F30C
:100770000A5201F000450024C1F3130140F2FF3397
:1007800041F480119A4201DA002070BD40F23343F7
:100790009A42A2F2334203DC524200F0A3F800E096
:1007A00090402C43F1D0404270BDC1F30A5210B5C5
:1007B000C1F3130140F2FF3341F480119A4201DA90
:1007C000002010BD40F233439A42A2F2334203DCD0
:1007D000524200F087F810BD904010BD00F000427A
:1007E00030F000400AD0C10D01F56071C0F3160071
:1007F00042EA0151C20840071143704700200146F8
:10080000704701F0004330B421F0004150EA01028A
:1008100006D00A0DA2F56072C1F31301002A02DCB2
:1008200030BC00207047440F44EAC104C100E01806
:1008300030BC00EBC25000F077B80000002801DBAC
:10084000C0F10040002901DBC1F100418142704745
:10085000002801DBC0F10040002901DBC1F10041AB
:10086000884270472DE9F05F0546002092469B467E
:1008700088460646814640241BE0284641464746B6
:10088000224600F02FF853465A46C01A914110D321
:1008900011461846224600F016F82D1A67EB01089B
:1008A0004F4622460120002100F00DF817EB000909
:1008B0004E41201EA4F10104DFDC484631462A46A1
:1008C0004346BDE8F09F202A04DB203A00FA02F1FB
:1008D000002070479140C2F1200320FA03F319432E
:1008E00090407047202A04DB203A21FA02F00021D0
:1008F000704721FA02F3D040C2F120029140084330
:1009000019467047202A06DBCB17203A41FA02F03D
:1009100043EAE07306E041FA02F3D040C2F120025C
:1009200091400843194670470029A8BF7047401CF2
:10093000490008BF20F00100704710B4B0FA80FCF5
:1009400000FA0CF050EA010404BF10BC704749B132
:10095000CCF1200421FA04F411FA0CF118BF0121A2
:1009600021430843A3EB0C01CB1D4FEA00614FEA82
:10097000102042BF002010BC704700EBC350104451
:100980000029A4BF10BC7047401C490008BF20F0DC
:10099000010010BC704710B5141E73F1000408DA92
:1009A000401C41F1000192185B411A4301D120F033
:1009B000010010BD2DE9F04D92469B4611B1B1FAF0
:1009C00081F202E0B0FA80F220329046FFF77BFF1E
:1009D00004460F4640EA0A0041EA0B0153465A46D4
:1009E000084313D0114653EA010019D0C8F1400260
:1009F0005046FFF777FF05460E4650465946424699
:100A0000FFF761FF084305D0012004E02046394686
:100A1000BDE8F08D0020054346EAE0762C433743DD
:100A20000A986305E40AA0EB08000022FD0A44EAE4
:100A300047540A3002D500200146E9E701051019A4
:100A40006941DDE9084500196941BDE8F04DA2E7BB
:100A500070B521F0004303430CD0C1F30A550024C4
:100A6000D5EB040564EB0403D617AD1AB34102DBE2
:100A70000020014670BD201841EB025170BD0000FE
:100A8000064C074D06E0E06840F0010394E80700DB
:100A900098471034AC42F6D3FFF74EFBE89E0008AF
:100AA000089F000830B58C1810F8012B12F00F03C6
:100AB00001D110F8013B120906D110F8012B03E017
:100AC00010F8015B01F8015B5B1EF9D101E001F850
:100AD000013B521EFBD1A142E6D3002030BD0000F5
:100AE0000448008804490988884201D001207047E1
:100AF0000020FCE7CE000020D000002008B5012136
:100B0000382002F0DBFB4FF4C040ADF800001020AD
:100B10008DF8030003208DF802006946124801F0A9
:100B2000B1FF4FF48050ADF8000028208DF803008D
:100B300069460D4801F0A6FF4FF48050ADF8000063
:100B400018208DF8030003208DF80200694607483D
:100B500001F098FF0420ADF800008DF8030069460D
:100B6000034801F08FFF08BD000C01400010014058
:100B70000014014010B5FFF7C1FF00F097F810BD59
:100B800030B502460B4600211EE0224C224D2D8836
:100B9000645D552C0DD1204C2488601CC41700EBDB
:100BA0005464E411A0EBC4141A4D2C5D7E2C00D1CA
:100BB00010E0194C2488601CC41700EB5464E41145
:100BC000A0EBC414144D2C8014480088124C2488C7
:100BD000A042DAD100BF12E00E480F4C2488055D18
:100BE00008464C1CA1B215540B4C2488601CC41739
:100BF00000EB5464E411A0EBC414074D2C8099421F
:100C000005DA06480088044C2488A042E4D1C8B222
:100C100030BD000039030020D0000020CE000020AD
:100C200070B505460E4600240CE000BF8021074841
:100C300004F099FE0028F9D0295D044804F061FF12
:100C4000601C84B2B442F0DB70BD00000050004074
:100C500088B000BF07F0B0FF114908601FE0142101
:100C60000F4807F0B1F8FFF73BFF78B101200D49BD
:100C7000087020216846FFF783FF0446002C04DD3E
:100C8000094A2146684601F05FFE00BF0648007829
:100C9000022804D101F07EFE002003490870DEE73F
:100CA000900000203A0000207800002000B585B0B8
:100CB0000121080502F0E2FA4FF4165001900020DD
:100CC000ADF80800ADF80A00ADF80C00ADF8100062
:100CD0000C20ADF80E0001A90E4804F0A1FE01227F
:100CE00040F225510B4804F075FE35208DF80000C8
:100CF00000208DF801008DF8020001208DF803001E
:100D0000684602F0E3F90121024804F020FE05B034
:100D100000BD00000050004021B1826842F0010295
:100D2000826003E0826822F001028260704701461F
:100D300000208A6802F004020AB1012000E00020CD
:100D400070470146C86C80B27047024600201368A5
:100D50000B400BB1012000E000207047014600204D
:100D60008A6802F008020AB1012000E00020704702
:100D700030B502460020002350680F4C20400D790A
:100D80000C6844EA05242043506090680B4C2040D6
:100D9000D1E902542C434D7944EA45042043906044
:100DA000D06A20F470000C7C641EE4B2234340EA55
:100DB0000350D06230BD0000FFFEF0FFFDF7F1FFF1
:100DC000F0B504460D4600200021092D11DDE06834
:100DD000A5F10A0606EB4607072606FA07F188433F
:100DE000A5F10A0606EB460603FA06F10843E060A1
:100DF0000CE0206905EB4507072606FA07F1884352
:100E000005EB450603FA06F108432061072A0FDACD
:100E1000606B561E06EB86071F2606FA07F188430D
:100E2000561E06EB860605FA06F10843606322E0CB
:100E30000D2A0FDA206BD61F06EB86071F2606FA4F
:100E400007F18843D61F06EB860605FA06F108432C
:100E5000206310E0E06AA2F10D0606EB86071F266C
:100E600006FA07F18843A2F10D0606EB860605FA9D
:100E700006F10843E062F0BD816841F0080181603D
:100E8000704721B1826842F4A002826003E0826868
:100E900022F4A00282607047816841F00401816001
:100EA000704700002DE9F84F83460C46002C35D0E2
:100EB000BBF1000F32D02046FFF704FC0546584630
:100EC000FFF700FC06462946FFF736FA8246002166
:100ED0005046FFF7BDFC06D216495046FFF7AEFC60
:100EE00001D2DFF850A000215046FFF7A7FC06D240
:100EF00011495046FFF7ACFC01D2DFF83CA0514647
:100F00000E48FFF719FA0090FFF768FC074605F056
:100F1000D5FB0546FFF775FC814601E04FF000095F
:100F200007494846FFF7D6F90546FFF7F2FB00B23E
:100F3000BDE8F88F3333B33E3333B3BE77BE1F3EC5
:100F400000007A4408B50121102002F0B7F94FF4EF
:100F50000050ADF8000010208DF8030003208DF83C
:100F600002006946044801F08DFD4FF4005102482B
:100F700001F065FE08BD00000010014010B55348A7
:100F800001F0CAFA002860D050480078312816D104
:100F90004E48007940B200EB400040004C49C88008
:100FA0004A48C07840B2A0EB800040000881474822
:100FB000407840B2404200EB8000464908804348F8
:100FC0000078322816D14148007940B200EB400049
:100FD00040003F49C8803D48C07840B2A0EB800047
:100FE000400008813948407840B2404200EB800020
:100FF000384908803548007833280FD13348C07805
:1010000040B2A0EB800040003149C8802F48807872
:1010100040B2A0EB800040002E4908802B480078A9
:10102000412812D1294840782B49087027488078F8
:1010300048702648C078887024480079C8702348D2
:101040004079087121488079487120480078322819
:101050003AD11E4880790007C00E204908801B48FD
:10106000407900F0200038B11D4800880988084404
:1010700000B21B4908800CE01448407900F01000D1
:1010800038B11748008815490988401A00B2144938
:1010900008800E48407900F0400040B11048408878
:1010A0000E490988084400B20D4948800CE0074801
:1010B000407900F0800038B1094840880749098824
:1010C000401A00B20649488010BD0000F801002017
:1010D000900100207E00002050000020B800002079
:1010E000800000207748007873287DD1754800790A
:1010F000C0F1800074490978484300B27349C88040
:101100007048C078C0F180006F490978484300B248
:101110006E4908816B484079C0F1800080006C49BD
:1011200008806848407800F0010018B10120694942
:10113000087012E06748007878B1674800780628A0
:1011400005DA65480078401C6349087002E0012018
:101150006149087000205F4908705A48407800F0E3
:10116000020018B101205D49087015E05B48007865
:1011700090B155480078022805DD53480078401E9C
:101180005149087005E002204F4908700120544978
:1011900008700020514908704A48407800F0040067
:1011A00018B101204F49087015E04E48007890B101
:1011B00045480078092805DA43480078401C424930
:1011C000087005E009204049087001204449087072
:1011D0000020444908703B48407800F0800050B13E
:1011E00041480088414900E06BE00988084400B2AA
:1011F0003D4908800CE03348407800F0200038B1C9
:101200003948008839490988401A00B236490880AF
:101210002C48407800F0400040B1334840883349C2
:101220000988084400B2304948800CE025484078DD
:1012300000F0100038B12C4840882C490988401A29
:1012400000B2294948801F48807800F0040018B196
:1012500001202749087015E02548007890B12348FF
:101260000088192805DA21480088401D1F49088098
:1012700005E019201D490880012019490870002047
:101280001B4908700F48807800F0010018B1012058
:101290001849087015E01748007890B11348008885
:1012A000052805DD11480088401F1049088005E029
:1012B00005200E49088001200949087000200D49C9
:1012C0000870704771000020B500002090010020D8
:1012D0007E000020B000002050000020B10000205F
:1012E00070000020B200002080000020B600002026
:1012F000B3000020B40000202DE9F0412D4800F09B
:101300005BFE002854D02B48C089B0F5FA7F4FDA35
:1013100028480089B0F5FA7F04DA4FF07F5026495B
:1013200008600CE023480089B0F57A7F04DA4FF0BA
:101330007E502149086002E020481F4908601D498D
:101340004988A1F57870FFF7BDF905461A4801688C
:101350002846FEF7BFFF0446FFF7DBF900B2184945
:10136000C88014490988A1F57870FFF7ABF90646E3
:101370001148006880F0004531462846FEF7AAFF74
:101380000446FFF7C6F900B20D4908810949C9882A
:10139000A1F57870FFF79FF906464FF03332094BFD
:1013A000FFF7AFF80446FFF7E1F900B206490880FD
:1013B000BDE8F08108020020BC0000203333333F39
:1013C000900100203333E3BF7E00002010B50420DD
:1013D00002F020FD0E4800680E49B0FBF1F00E4906
:1013E00008700B4800680B49B0FBF1F44FF47A70B9
:1013F00044434FF0E020006940F002004FF0E0214C
:10140000086108464461006940F00100086110BDB0
:101410003C00002040420F00C200002010B50446EE
:101420004FF47A7104FB01F000F002F810BD0000E7
:1014300070B5034600224FF0E02675690D4E3678F0
:1014400003FB06F44FF0E026B16910E04FF0E02610
:10145000B06988420BD0884202D20E1A324402E0B0
:101460002E1A0E4432440146A24200D300E0EDE7BA
:1014700000BF70BDC20000204FF08040808C7047DC
:1014800000B587B001210D2001F018FF0121284887
:1014900001F084FB0820ADF8180004208DF81B0033
:1014A00003208DF81A0006A9224801F0EBFA4FF448
:1014B0000040ADF8180006A91F4801F0E3FA012129
:1014C000084601F0DBFE4FF0804002F037FE03A833
:1014D00003F08CF90020ADF80C004FF6FF70ADF86A
:1014E00010000020ADF81200ADF80E0003A94FF077
:1014F000804003F029F900231A4603214FF0804071
:1015000002F010FF684602F085FF0620ADF80800E3
:1015100069464FF0804002F027FF00204FF08041E5
:1015200088840121880702F0EDFD07B000BD0000AE
:1015300000031800000C0140000801404FF08041FA
:1015400088847047014800887047000024040040E8
:1015500000B587B00121092001F0B0FE3020ADF8C0
:10156000180004208DF81B0003208DF81A0006A92E
:101570001D4801F087FA0121022001F07FFE0121C0
:101580001A4801F00BFB1A4802F0D8FD03A803F03B
:101590002DF90020ADF80C004FF6FF70ADF81000EB
:1015A0000020ADF81200ADF80E0003A9104803F0BA
:1015B000CBF800231A4603210D4802F0B3FE68461B
:1015C00002F028FF0620ADF808006946084802F03E
:1015D000CBFE00200649243108800121044802F096
:1015E00091FD07B000BD0000000C014000081A008A
:1015F00000040040014908807047000024040040B6
:1016000001464906084A926942F00102064B9A6176
:10161000064A526822F0E062044B5A601A46526849
:101620000A435A6070470000001002400000014069
:1016300008B50121082001F041FE0120ADF80000AD
:1016400048208DF803006946014801F01BFA08BDE7
:10165000000C01400348006808B9012070470020D1
:10166000FCE700000081214208B50121142001F0AF
:1016700025FE1020ADF800008DF8030003208DF842
:10168000020069460A4801F0FDF94FF48070ADF898
:1016900000006946074801F0F5F91021044801F0FF
:1016A000D0FA4FF48071034801F0CBFA08BD000076
:1016B000001001400008014070B505462C46B4F505
:1016C000616F01DD4FF4616414F5616F00DA0D4C58
:1016D000002C0BDD4FF461610B4803F000F8C4F5FA
:1016E000616081B2084802F0FCFF0AE04FF46161DA
:1016F000054802F0F6FF04F5616081B2024802F08D
:10170000EEFF70BDF0F1FFFF0008004070B5054628
:101710002C46B4F5616F01DD4FF4616414F5616F1F
:1017200000DA0D4C002C0BDD4FF461610B4802F028
:10173000DAFFC4F5616081B2084802F0D6FF0AE022
:101740004FF46161054802F0D0FF04F5616081B299
:10175000024802F0C8FF70BDF0F1FFFF0008004032
:1017600000B589B00121082001F0A8FD4FF4707088
:10177000ADF8200018208DF8230003208DF82200FA
:1017800008A9274801F07EF90121042001F076FD27
:1017900040F60F60ADF818000020ADF81400ADF869
:1017A0001A00ADF8160005A91E4802F0CDFF602012
:1017B000ADF804000120ADF806000020ADF80A00E5
:1017C000ADF80C0001A9174802F02EFE08211548BB
:1017D00002F076FE01A9134802F07CFE08211148B0
:1017E00002F0CAFE01A90F4802F0D4FE08210D48FC
:1017F00002F020FF01A90B4802F026FF082109484A
:1018000002F060FF0121074802F070FC0121054849
:1018100002F078FC0121034802F080FC09B000BD11
:10182000000C0140000800401CB504460622694631
:101830003B2001F034FC9DF801009DF8001040EAC7
:10184000012000B220809DF803009DF8021040EABC
:10185000012000B260809DF805009DF8041040EA68
:10186000012000B2A0801CBD1CB5044606226946BA
:10187000432001F014FC9DF801009DF8001040EA9F
:10188000012000B220809DF803009DF8021040EA7C
:10189000012000B260809DF805009DF8041040EA28
:1018A000012000B2A0801CBD08B50121042001F078
:1018B00005FD4FF4C050ADF8000010208DF8030076
:1018C00003208DF802006946164801F0DBF801207C
:1018D000154908601549C1F8AC0180216B2001F061
:1018E000E9FB1348FFF7A4FD00216B2001F0E2FBA8
:1018F00018211B2001F0DEFB00211C2001F0DAFB87
:101900000021382001F0D6FB0021232001F0D2FB7A
:1019100001216B2001F0CEFB00216C2001F0CAFBFD
:1019200008BD000000080140B00121420000214232
:10193000A086010010B50446E006010E1C2001F04F
:10194000B9FB10BD10B5044621461A2001F0B2FBC8
:1019500010BD10B50446E006010E1B2001F0AAFBE5
:1019600010BD70B50446B4F57A7F01DD4FF47A748A
:101970000A2C00DA0A244FF47A7090FBF4F0401E2F
:10198000C5B22946192001F095FB70BD70B5002441
:1019900015E004F1B001C8B201F0EEFB002001F047
:1019A000EBFB102001F0E8FB002504E0002001F033
:1019B000F3FB681CC5B2802DF8DB601CC4B2082C98
:1019C000E7DB70BD2DE9F04705460E461746984601
:1019D0004FF000090024A7F1200000F0FF097B2D43
:1019E0002BDA082E29DAB8F1000F14D03146284638
:1019F00001F0AEFB00BF0BE009EB490104EB410134
:101A00000F4A515CC943C8B201F0C6FB601CC4B2A6
:101A1000062CF1DB11E03146284601F099FB002449
:101A200009E009EB490104EB4101054A505C01F072
:101A3000B3FB601CC4B2062CF3DBBDE8F0870000EA
:101A4000F09A00082DE9F04105460E4614461F465F
:101A50000A2C07DA04F13000C2B23B463146284670
:101A6000FFF7B0FFBDE8F0812DE9F05F05460E46B7
:101A700017469846DDE90A9B7F2D01DC072E01DD24
:101A8000BDE8F09FE819802803DC06EB0800082871
:101A900000DDF5E7BBF1000F18D0344613E0214616
:101AA000284601F055FBAA4609E019F8012BD1435D
:101AB000C8B201F071FB0AF1010000F0FF0ABA455B
:101AC000F3DB601CC4B24445E9DB15E0344611E0A9
:101AD0002146284601F03CFBAA4607E019F8010B15
:101AE00001F05AFB0AF1010000F0FF0ABA45F5DBEC
:101AF000601CC4B24445EBDB00BFC1E72DE9F041F7
:101B000004460D461646984600277B2C14DA082D0D
:101B100012DA0EE0F25D434629462046FFF752FFF7
:101B2000A01DC4B27A2C02DD0024681CC5B2781C4A
:101B3000C7B2F05D0028EDD1BDE8F0812DE9FE4F80
:101B400080468A4691461D46DDE90C7B002D76DDF8
:101B5000E8190A2873DAB9F1000F02DAC9F10006B0
:101B600000E04E460A20B6FBF0F100FB11608DF854
:101B700001006420B6FBF0F100FB11600A21B0FB0C
:101B8000F1F08DF802004FF47A70B6FBF0F100FB33
:101B900011606421B0FBF1F0C0B28DF8030042F295
:101BA0001070B6FBF0F100FB11604FF47A71B0FBDE
:101BB000F1F0C0B28DF804005948B6FBF0F100FB1B
:101BC000116042F21071B0FBF1F0C0B28DF8050067
:101BD0005448B6FBF0F100FB11605149B0FBF1F045
:101BE000C0B28DF806005048B6FBF0F100FB116062
:101BF0004C49B0FBF1F0C0B28DF807004B48B6FB82
:101C0000F0F100FB11604849B0FBF1F0C0B28DF873
:101C100008004748B6FBF0F100FB11604349B0FBF8
:101C2000F1F0C0B28DF80900B9F1000F41DA0023DC
:101C30002D2251464046FFF7C5FE002412E037E052
:101C4000E919091B491E1DF8012004EB440308F1A2
:101C5000060101EB4301C8B25B465146FFF7F2FEB5
:101C6000601CC4B2681EA042EADC002F56D005EB0F
:101C7000450108EB4101C8B25B462E225146FFF7F1
:101C8000A1FE002412E005EB450108EB4101891D8E
:101C900004EB440301EB4301C8B2391B1DF80120DA
:101CA0005B465146FFF7CEFE601CC4B2BC42EADB85
:101CB00034E000240EE0E919091B1DF8012004EBB3
:101CC000440108EB4101C8B25B465146FFF7BAFE3A
:101CD000601CC4B2AC42EEDB07B305EB450108EB78
:101CE0004101C8B25B462E225146FFF76BFE00242D
:101CF00012E005EB450108EB4101891D04EB4403AB
:101D000001EB4301C8B2391B1DF801205B46514667
:101D1000FFF798FE601CC4B2BC42EADBBDE8FE8F50
:101D2000A086010040420F008096980000E1F50572
:101D300000CA9A3B00B587B00121042001F0BEFA29
:101D4000A020ADF8040003208DF8060018208DF8BF
:101D5000070001A9544800F095FE1020ADF80400DA
:101D60008DF8070001A9504800F08CFE4020ADF826
:101D7000040010208DF8070001A94B4800F082FEF6
:101D80000121080301F09AFA0020ADF808004FF491
:101D90008270ADF80A000020ADF80C000220ADF80A
:101DA0000E000120ADF810004002ADF81200002036
:101DB000ADF81400ADF816000720ADF8180002A920
:101DC0003A4801F0EDFD0121384801F0CFFDFF2038
:101DD00001F0B0FD4021344800F033FF6420FFF7EC
:101DE0001DFB4021304800F02AFFC820FFF716FBFA
:101DF00040212D4800F025FFAE2001F0BDF9002064
:101E000001F0BAF9102001F0B7F9402001F0B4F95F
:101E1000812001F0B1F9EF2001F0AEF9A12001F02D
:101E2000ABF9C82001F0A8F9A62001F0A5F9A82077
:101E300001F0A2F93F2001F09FF9D32001F09CF9B5
:101E4000002001F099F9D52001F096F9802001F0E9
:101E500093F9D92001F090F9F12001F08DF9DA2001
:101E600001F08AF9122001F087F9DB2001F084F9F2
:101E7000402001F081F9202001F07EF9022001F0DC
:101E80007BF98D2001F078F9142001F075F9A42078
:101E900001F072F9A62001F06FF9AF2001F06CF9A2
:101EA000FFF774FD07B000BD00080140003001409D
:101EB00008B50121102001F001FA0120ADF8000061
:101EC00048208DF8030003208DF80200694617486A
:101ED00000F0D8FD0220ADF8000010208DF80300BE
:101EE00003208DF802006946104800F0CBFD042065
:101EF000ADF8000010208DF8030003208DF80200DB
:101F000069460A4800F0BEFD0820ADF80000102028
:101F10008DF8030003208DF802006946034800F0A5
:101F2000B1FD01200249086008BD00000010014019
:101F30008801224270B5044600201449086000253B
:101F400007E01349485D01F02DF912494855681C16
:101F5000C5B2092DF5DB01200C4908600D48407819
:101F600020700C48C078C04360700A480079C043B4
:101F7000A07008484079E0700648807920710548D3
:101F8000C07960710348007AA07170BD8801224257
:101F9000189D00083003002010B50548007820B9CE
:101FA00000200449C8800881488101F011FA10BD61
:101FB0006E00002090010020014630480078002883
:101FC00059D02F4840782E4A927840EA0220C0F338
:101FD0000A0008802A488078C010294AD27840EA4E
:101FE0004210C0F30A0048802548C0788011244A76
:101FF000127940EA8200224A527940EA8220C0F3F4
:102000000A0088801E48407940101D4A927940EAB3
:10201000C210C0F30A00C880194880790011184A1C
:10202000D27940EA0210C0F30A0008811448C0794E
:10203000C011134A127A40EA4200114A527A40EA29
:102040004220C0F30A0048810D48407A80100C4AB3
:10205000927A40EA8210C0F30A0088810848807AA8
:102060004011074AD27A40EAC200C8810020034AE0
:102070001070012070470020FCE70000C80000201D
:102080000803002000B589B00121112001F016F9E4
:102090004FF47070ADF8200018208DF82300032055
:1020A0008DF8220008A9294800F0ECFC0121480322
:1020B00001F004F94720ADF814000020ADF8160037
:1020C00044F61F60ADF818000020ADF81A0005A90D
:1020D0001F4802F039FB6020ADF804000120ADF884
:1020E000060040F2DC50ADF80A000020ADF80C000C
:1020F00001A9174802F098F90821154802F0E0F903
:1021000001A9134802F0E6F90821114802F034FA57
:1021100001A90F4802F03EFA08210D4802F08AFAA0
:1021200001A90B4802F090FA0821094802F0CAFA06
:102130000121074801F0DAFF0121054801F0E2FF23
:102140000121034801F0EAFF09B000BD0010014081
:10215000003401402DE9F0410446B4F5617F01DD12
:102160004FF4617414F5617F00DA0B4C2046FEF7E2
:10217000A9FA80460949FEF7ADF807460849FEF777
:1021800051F80646FEF7DEFA85B22946054802F008
:10219000ACFABDE8F08100007CFCFFFF3F358E3FCC
:1021A0000080BB44003401402DE9F0410446B4F501
:1021B000617F01DD4FF4617414F5617F00DA0B4C2F
:1021C0002046FEF77FFA80460949FEF783F8074666
:1021D0000849FEF727F80646FEF7B4FA85B2294605
:1021E000054802F080FABDE8F08100007CFCFFFFAA
:1021F0003F358E3F0080BB44003401402DE9F04163
:102200000446B4F5617F01DD4FF4617414F5617F1C
:1022100000DA0B4C2046FEF755FA80460949FEF7D6
:1022200059F807460849FDF7FDFF0646FEF78AFA0A
:1022300085B22946054802F054FABDE8F081000055
:102240007CFCFFFF3F358E3F0080BB4400340140E3
:102250002DE9F84F04460D4629462046FEF734F88E
:10226000274908602748016825480068FEF72CF8D0
:1022700082462548B0F90000FEF724FA834651460D
:10228000FEF728F880462148B0F90000FEF71AFA58
:1022900082461B4801685046FEF71CF881464146BD
:1022A000FDF7C0FF07461A48B0F90000FEF70AFA2A
:1022B00039460090FDF7B6FF0646FEF72AFA00B24F
:1022C000134908800E4800680E4908601048B0F9AC
:1022D000000041F26801884202DD08460C4908808E
:1022E0000B48B0F900000B49884203DA4EF69870AB
:1022F000074908800648B0F90000BDE8F88F0000E3
:102300009C000020A00000206C0000206A0000203B
:102310009800002098EFFFFF2DE9F84F04460D4686
:1023200029462046FDF7D0FF274908602748016865
:1023300025480068FDF7C8FF82462548B0F900002F
:10234000FEF7C0F983465146FDF7C4FF8046214899
:10235000B0F90000FEF7B6F982461B480168504606
:10236000FDF7B8FF81464146FDF75CFF07461A4876
:10237000B0F90000FEF7A6F939460090FDF752FFCC
:102380000646FEF7C6F900B2134908800E480068F9
:102390000E4908601048B0F9000041F26801884217
:1023A00002DD08460C4908800B48B0F900000B49D3
:1023B000884203DA4EF69870074908800648B0F95B
:1023C0000000BDE8F88F0000A8000020AC0000204D
:1023D0006C0000206A000020A400002098EFFFFF9E
:1023E00010B586B004460121042000F067FF0121EA
:1023F000880300F063FF4FF40070ADF8140018205C
:102400008DF8170003208DF8160005A91C4800F070
:1024100039FB4FF48060ADF8140004208DF81700EC
:1024200005A9174800F02EFB01940020ADF8080024
:10243000ADF80A00ADF80C00ADF810000C20ADF8B6
:102440000E0001A90F4803F0EBFA25208DF80000DB
:1024500002208DF8010001208DF802008DF80300A4
:10246000684600F033FE012240F22551054803F092
:10247000B1FA0121034803F06AFA06B010BD00006A
:1024800000080140003801402DE9F04707460D469D
:1024900090464FF00009202D37DCAA201C49087017
:1024A00055204870681D8870084680F80380002415
:1024B00005E0395D201D164A1154601CC4B2AC42BF
:1024C000F7DB281DC6B2002406E01148005D484431
:1024D00000F0FF09601CC4B2B442F6DB0C4800F8FF
:1024E0000490681DC6B200240DE00948015D09484A
:1024F00003F007FB00BF4021064803F034FA01282F
:10250000F9D1601CC4B2B442EFDBBDE8F087000033
:10251000400200200038014010B503460B48007807
:1025200090B10B488078001FC2B2002105E0C81CA2
:10253000074C205C5854481CC1B29142F7DB002084
:10254000024C2070104610BD0020FCE7C5000020A2
:102550006802002010B586B004460121082000F072
:10256000ADFE0420ADF8140018208DF817000320EC
:102570008DF8160005A91E4800F084FA0820ADF871
:10258000140004208DF8170005A9194800F07AFA04
:102590000121480400F072FE01940020ADF808000B
:1025A000ADF80A00ADF80C00ADF810000C20ADF845
:1025B0000E0001A90F4803F033FA26208DF8000021
:1025C00002208DF8010001208DF802008DF8030033
:1025D000684600F07BFD012240F22551054803F0DA
:1025E000F9F90121034803F0B2F906B010BD00006B
:1025F00000080140004400402DE9F04707460D4621
:1026000090464FF00009322D37DCAA201C49087093
:1026100055204870681D8870084680F803800024A3
:1026200005E0395D201D164A1154601CC4B2AC424D
:10263000F7DB281DC6B2002406E01148005D4844BF
:1026400000F0FF09601CC4B2B442F6DB0C4800F88D
:102650000490681DC6B200240DE00948015D0948D8
:1026600003F04FFA00BF4021064803F07CF901282F
:10267000F9D1601CC4B2B442EFDBBDE8F0870000C2
:10268000E0020020004C00402DE9F05F01211148DC
:10269000FEF7F7FB00BF02210E48FEF756FB0028AD
:1026A000F9D00C48FEF74DFB83465846FEF724F858
:1026B0008046094A094BFDF724FF06460022084BD5
:1026C000FDF791FF0446FEF770F81FFA80FA5046B6
:1026D000BDE8F09F002801400AD7A370BD54AC406C
:1026E00000FEAF4000B587B00121082000F0E6FDF4
:1026F0000220ADF8180000208DF81B0006A91D4827
:1027000000F0C0F90121880200F0D8FD00200190FE
:102710008DF808008DF809004FF460200390002028
:10272000049001208DF8140001A91348FEF720FB46
:102730004FF4004000F096FD0723012209210E48C6
:10274000FEF73EFB01210C48FEF7E6FA0A48FEF7C9
:1027500093FB00BF0848FEF701FB0028FAD10648AA
:10276000FEF79AFB00BF0448FEF7E1FA0028FAD111
:1027700007B000BD000C01400028014000BFFEE78B
:10278000704700001CB5B9E0642005F0E1FA5C4830
:10279000007800B35A480078012806D1002359A2D6
:1027A00002215A20FFF7AAF926E0554800780228AE
:1027B00006D1002354A202215A20FFF79FF91BE003
:1027C0004F480078042817D1002350A202215A2034
:1027D000FFF794F910E04E480078012806D1002355
:1027E0004CA202215A20FFF789F905E000234AA2F2
:1027F00002215A20FFF782F9002003210223CDE9AC
:1028000000104648028804211E20FFF797F9002097
:1028100003210223CDE900104148028804215A20F7
:10282000FFF78CF93F480088FDF766FF05463E4AF2
:102830003E4BFDF766FE0746FDF798FF0446002075
:10284000012102232246CDE9001003211E20FFF7BB
:1028500075F90020009001903548B0F90A20062350
:1028600003215A20FFF76AF9642005F071FA00206D
:102870000321CDE900102F48B0F9000000EB8000E3
:102880004200022305211E20FFF758F900200221F3
:10289000CDE900102848B0F9002005231946602032
:1028A000FFF74CF925480022254BD0E90051284676
:1028B000FDF727FE0746FDF759FF044600200221D9
:1028C0000B462246CDE9001006211E20FFF736F9FF
:1028D0001C4800221A4BD0E900512846FDF711FE92
:1028E0000746FDF743FF0446002002210B4622461F
:1028F000CDE9001006215A20FFF720F944E7000037
:102900007D00002050533200415050004E5246008E
:102910003A00002041363900524F53002000002079
:1029200022000020560000209A9999999999B93F60
:10293000D80100207E00002090010020B801002076
:1029400000005940C801002030B50A2900DA30BD26
:102950000478552C08D144787E2C05D1047A7E2C3D
:1029600002D1447A552C00D0F1E7C47805796C4047
:1029700045796C40857984EA0503C4799C4200D08E
:10298000E5E784781470C47854704479D47000BF3B
:10299000DDE700000EB555208DF800007E208DF893
:1029A000010003208DF8020014480088000A8DF809
:1029B0000300124800788DF8040011480088000ACE
:1029C0008DF805000E4800788DF806009DF803008C
:1029D0009DF8041048409DF8051048409DF80610E9
:1029E00048408DF807007E208DF8080055208DF8AE
:1029F00009000A216846FEF713F90EBD20000020E9
:102A0000220000201948007801282ED11748C078EC
:102A1000C0F18000164909784942484300B215497F
:102A2000C88012484078C0F17800134909784942BB
:102A3000484300B2114908800C480079002808DD9D
:102A40000B480078401C0A49087001200C490870A6
:102A50000BE006480079002807DA05480078401E98
:102A6000034908700120064908707047780000206B
:102A7000C000002090010020C10000207E00002046
:102A8000700000202DE9F0410246002500260020BC
:102A900000230024002791F803C00CF00F0591F8E3
:102AA00003C00CF0100CBCF1000F03D091F802C071
:102AB0004CEA050591F800C0BCF1000F31D0146854
:102AC00000202BE04FF0010C0CFA00F3B1F800C02D
:102AD0000CEA03069E4220D183004FF00F0C0CFA43
:102AE00003F7BC4305FA03FC4CEA040491F803C065
:102AF000BCF1280F06D14FF0010C0CFA00FCC2F813
:102B000014C00AE091F803C0BCF1480F05D14FF0A2
:102B1000010C0CFA00FCC2F810C0401C0828D1D3EC
:102B20001460B1F800C0BCF1FF0F34DD5468002020
:102B30002EE000F1080C4FF0010808FA0CF3B1F890
:102B400000C00CEA03069E4221D183004FF00F0C17
:102B50000CFA03F7BC4305FA03FC4CEA040491F8B1
:102B600003C0BCF1280F05D100F1080C08FA0CF8DD
:102B7000C2F8148091F803C0BCF1480F07D100F1EE
:102B8000080C4FF0010808FA0CF8C2F81080401C3D
:102B90000828CED35460BDE8F0810000F0B50A46A5
:102BA000002300240021002500F00046B6F1004F6C
:102BB00002D11D4EF16901E01B4E7168C0F303455F
:102BC00083B200F44016B6F5401F08D121F07061C1
:102BD000154E766826F07066134F7E6012E000F4A2
:102BE0008016B6F5801F06D1032606FA05F4A14328
:102BF00041F0706106E0460D360103FA06F6B14376
:102C000041F0706122B1460D360103FA06F63143F8
:102C100000F00046B6F1004F02D1034EF16101E031
:102C2000014E7160F0BD000000000140024600202E
:102C300093680B400BB1012000E000207047416118
:102C40007047016170470AB1016100E0416170475E
:102C500000BFFEE710B500200E4908600E4800686E
:102C600020F470400C4908600846006840F4405069
:102C7000086000200949C1F8AC010120FEF7D8FB2B
:102C8000012004490860FEF7D3FB00200349C1F886
:102C9000B00110BDB00121420408014000002142F2
:102CA00010B500200E4908600E48006820F47040FE
:102CB0000C4908600846006840F440500860012054
:102CC0000949C1F8AC01FEF7B3FB012004490860D3
:102CD000FEF7AEFB00200449C1F8B00110BD0000B2
:102CE000B0012142040801400000214270B50546B0
:102CF00000241748006820F4704015490860084611
:102D0000006840F400400860002616E000201149E9
:102D100008600220FEF78CFB01200F49C1F8B001CA
:102D20006006040E0B488438006808B1601CC4B209
:102D30000220FEF77DFB701CC6B2082EE6DB15B143
:102D4000FFF788FF01E0FFF7ABFF204670BD0000F2
:102D500004080140B00121420000214270B5044640
:102D60001448006820F47040124908600846006862
:102D700040F44050086000200F490860002516E02C
:102D8000E0090D49091F08606006040E0120FEF7E6
:102D90004FFB01200949C1F8B001FEF749FB0020B3
:102DA000054908600120FEF743FB681CC5B2082DE9
:102DB000E6DB70BD04080140B00121420000214261
:102DC00010B51648006820F47040144908600846A1
:102DD000006840F440500860012011490860114823
:102DE000D0F82C0108B9002010BD01200C49091DA4
:102DF0000860FEF71DFB00200A49C1F8AC01084835
:102E00008038006808B10020EEE70120FEF710FBD3
:102E100000200349091D08600120E5E7040801407E
:102E2000AC0121420000214210B50E48006820F498
:102E300070400C4908600846006840F44050086043
:102E40000020094908600949C1F8AC010120FEF7DA
:102E5000EFFA0120044908600449C1F8AC01FEF70B
:102E6000E7FA10BD04080140B001214200002142F0
:102E700010B500241548006820F47040134908601C
:102E80000846006840F400400860012010490860CE
:102E9000FEF7CEFA01200F49C1F8B001FEF7C8FADB
:102EA0000AE0601CC4B2322C03DDFFF7BDFF002036
:102EB00010BD0120FEF7BCFA0548803800680028E4
:102EC000EFD10349091D08600120F1E70408014022
:102ED000AC0121420000214210B51A48B0F90000AF
:102EE000B0F5617F03DD4FF4617016490880154825
:102EF000B0F9000010F5617F03DA4FF67C4011490C
:102F000008801048B0F90200B0F5617F03DD4FF48E
:102F100061700C4948800B48B0F9020010F5617FE0
:102F200003DA4FF67C40074948800649B1F90000B2
:102F3000FFF710F903494988494208B2FFF734F90D
:102F400010BD00008000002039E0FEF783FB002860
:102F500032D0322004F0FCFEFEF77CFB60B300248C
:102F600017E0322004F0F4FEFEF774FB00B912E023
:102F70003C2C0CD14FF400511148FFF762FEC820E1
:102F800004F0E6FE4FF400510D48FFF758FE601CB8
:102F9000C4B2C82CE5DB00BF142C0CDA0948007859
:102FA000062805DA07480078401C0649087002E048
:102FB00001200449087000BF322004F0C9FEC4E7B4
:102FC00000100140500000202DE9F04106460F4658
:102FD00014461D46FFF7F4FE10B90120BDE8F0814C
:102FE0007106080EFFF7BAFEFFF742FF18B9FFF7A8
:102FF0001BFF0120F2E73846FFF7B0FEFFF738FF6E
:10300000FFF7DEFE012101EB4601C8B2FFF7A6FE85
:10301000FFF72EFF0DE0012C04D10020FFF766FE24
:10302000287003E00120FFF761FE28706D1C601E10
:10303000C4B2002CEFD1FFF7F7FE0020CEE72DE958
:10304000F04105460E4617469846FFF7B9FE10B9FF
:103050000120BDE8F0816906080EFFF77FFEFFF74B
:1030600007FF18B9FFF7E0FE0120F2E73046FFF74F
:1030700075FEFFF7FDFE00240BE018F80400FFF7D3
:103080006DFEFFF7F5FE18B9FFF7CEFE0020E0E772
:10309000641CBC42F1DBFFF7C7FE0020D9E770B526
:1030A00004460D461646F2B22B4621466820FFF72D
:1030B0008BFF70BD13B5044601AB01222146682089
:1030C000FFF7BDFF1CBD00BFFEE7704770B50021D4
:1030D00000230F22C47804B3154C246804F4E06480
:1030E000C4F5E064210AC1F10403CA40447804FA3B
:1030F00003F184781440214309010E4C0678A15550
:10310000047804F01F050124AC4005786D11AD0072
:1031100005F1E025C5F8004109E0047804F01F0539
:103120000124AC40044D0678761145F8264070BD68
:103130000CED00E000E400E080E100E00249014322
:10314000024A1160704700000000FA050CED00E033
:1031500070B504460D4605F1B001C8B200F00CF898
:10316000102141EA141000F007F804F00F0141F0BB
:10317000010000F001F870BD10B5044610210548AB
:10318000FFF75DFD204600F0D5FB10210148FFF759
:1031900058FD10BD0008014010B50446204600F05F
:1031A000C9FB10BD1CB50446002001900120009011
:1031B00027E09DF80000204018B101201449086064
:1031C00002E000201249086000201149083108601F
:1031D0001020FEF72DF90F48D0F8000128B19DF816
:1031E00004009DF8001008430190012008490831AF
:1031F00008601020FEF71CF99DF800004006000E44
:1032000000909DF800000028D3DC9DF804001CBD50
:10321000840122420000224200BF05F0CDFC0D498E
:10322000086016E014210B4804F0CEFD0A48FEF7B2
:1032300081FE0A48007801280BD00748407808280A
:1032400007D10548807920B9012004490870044954
:103250000870E7E78C000020710000207D0000204E
:103260007000002001460020034A506820F44040CE
:1032700008435060704700000010024029B1064A20
:10328000D2690243044BDA6104E0034AD269824303
:10329000014BDA61704700000010024029B1064A74
:1032A00012690243044B1A6104E0034A1269824323
:1032B000014B1A61704700000010024029B1064A14
:1032C00092690243044B9A6104E0034A9269824383
:1032D000014B9A61704700000010024029B1064A74
:1032E000D2680243044BDA6004E0034AD2688243A6
:1032F000014BDA60704700000010024030B5002139
:103300000022002400232D4D6D6805F00C0121B131
:10331000042905D0082923D105E0294D056022E0C4
:10332000274D05601FE0254D6D6805F47012234D93
:103330006D6805F48034022505EB92421CB9214DDD
:10334000554305600BE01D4D6D6805F400351DB15A
:103350001C4D5543056002E0194D5543056002E0E0
:10336000174D056000BF00BF144D6D6805F0F001FA
:103370000909154D6B5C0568DD4045600F4D6D68B2
:1033800005F4E061090A104D6B5C4568DD4085601D
:103390000A4D6D6805F46051C90A0B4D6B5C4568B8
:1033A000DD40C560054D6D6805F44041890B074D52
:1033B0006B5CC568B5FBF3F5056130BD00100240DC
:1033C00000127A0000093D007001002080010020F9
:1033D0002DE9F04F8FB0FEF74FF800B20990FDF7DE
:1033E0007AF98246D24AD34BFDF78BF881F000413F
:1033F000CDE90A01FDF705FA0D90FDF7EFF9CE4A88
:1034000003C20020FEF79AF8FEF79CF800B209907C
:10341000FDF761F9C64AC74BCDE90A01FDF771F81E
:103420008246FDF7EEF90D90FDF7D8F9C34A03C2C5
:103430000020FEF7DFF8C248B0F9060040F2DC5188
:10344000884202DD0846BE49C880BD48B0F9060082
:10345000BC49884203DA4FF62420B949C880B849EC
:10346000B1F90600FDF737F90022B74BCDE90C01A1
:10347000FDF7B9F88246FDF7C4F90446B348B0F940
:103480000000FDF728F90022AF4BCDE90C01FDF754
:10349000AAF88246FDF7B5F906463046FDF79EF9D3
:1034A000CDE90A0104F0C4F902460B46CDE90C014E
:1034B0004FF06040A649FDF796F88246FDF7A1F966
:1034C0008046A248008800287CD04046FDF786F957
:1034D000CDE90A014046FDF781F982469D4A9E4B9F
:1034E000FDF709F8CDE906012046FDF777F9CDE9AA
:1034F0000401DDE90623FDF704F8CDE90801DDE963
:103500000A23FDF770F8CDE90C01FDF77AF98A4935
:1035100088604046FDF762F9CDE90A014046FDF7B3
:103520005DF98C4A8C4BCDE90401FCF743FFCDE9F2
:1035300008012046FDF752F9CDE90601DDE908232F
:10354000FCF7DFFF8246DDE90A23FDF74CF8CDE901
:103550000C01FDF756F9794988603046FDF73EF9D0
:103560007E4A7F4BCDE90001FCF7CBFF824604F099
:103570005FF902460B46CDE902014FF06040744905
:10358000FDF731F8734A744BCDE90401FCF712FFE3
:1035900002460B46CDE906014FF060406C49FDF74D
:1035A00022F8CDE9080103F089F86E4A6E4BCDE9A7
:1035B0000A01FCF7A6FFCDE90C01FDF722F905464B
:1035C00005E0FFE75C4884605C488460002528468D
:1035D000FDF704F98246654A654BFCF792FFCDE999
:1035E00006012846FDF7FAF8CDE902012846FDF765
:1035F000F5F882465F4A604BFCF783FFCDE9000196
:10360000DDE90223FCF77DFFCDE90401DDE90623B6
:10361000FCF7D0FE81F000410022584BCDE90801B3
:10362000FCF76FFF564A574BCDE90A01FCF7DBFF69
:10363000CDE90C01FDF7E5F8074653493846FCF79C
:1036400049FE83460021FCF7EDFD8246FDF761F857
:103650000FFA80F94846FEF7D1FD3748D0E900213E
:103660001046FDF7CEF88246334988685146FEF78A
:10367000EFFD314988813149D1E900211046FDF73C
:10368000C0F882462D4988685146FEF745FE2B4911
:10369000888129498989494208B2FEF70DF82749EE
:1036A000B1F90C00FEF732F82349D1E900A181F00D
:1036B0000043224903C95246CDE90601FCF77AFED0
:1036C00000224FF08043CDE90801FCF78CFF002277
:1036D0001D4BCDE90A01FCF714FFCDE90C01FDF704
:1036E00045F800B216490880002048801249D1E907
:1036F00000A181F00043114803C85246CDE90601FC
:10370000FCF758FE134A214BCDE90801FCF76BFF8B
:1037100000220D4BCDE90A01FCF7F3FECDE90C01C7
:10372000FDF724F800B2064988800FB0BDE8F08F9D
:10373000E3775F723A55733FB8010020C80100205B
:103740009001002024FAFFFF00408F407E000020FF
:10375000CEF7C33F1F85EB51B81EB53FCAC342AD7C
:1037600069DE913F144C77B6D7A54C409BE61DA768
:10377000E848F33F091B9E5E29CB703F00806640FE
:10378000A7E8482EFF21094000002041B81EC53F90
:1037900010B51B48FEF748F81948408819490880B9
:1037A00017480088404200B24880154880888880C9
:1037B0001548FEF759F81448008814490988084448
:1037C00000B21149088008464088104949880844D9
:1037D00000B20D494880084680880C498988084411
:1037E00000B209498880084640880649C8800648D2
:1037F0000088404200B2088103488088488110BD9B
:1038000058000020D80100205E0000206400002045
:1038100010B529480088000A284908702648007811
:10382000487025484088000A887023488078C8700E
:1038300021488088000A08711F48007948711E4895
:10384000C088000A88711C488079C8711A480089AC
:10385000000A08721848007A487217484089000A1E
:1038600088721548807AC87215480088000A087363
:1038700013480078487312484088000A887310483B
:103880008078C8730E488088000A08740C48007954
:1038900048740C480088001288740A480078C8747C
:1038A000102214210548FEF7A7FE10221421034818
:1038B000FEF7EAFD10BD0000D8010020E401002061
:1038C000900100205600002000BF05F075F917494F
:1038D000086029E01421154804F076FA14480078AD
:1038E000D0B113480078012802D1FDF7FBFB13E0AB
:1038F0000F480078022802D1FDF740FB0CE00C488D
:103900000078032802D1FDF7F7FC05E008480078AD
:10391000042801D1FFF776F8FEF73EFBFFF7DCFA4B
:10392000FFF736FFFFF774FFD4E7000084000020A4
:103930007D00002010B5044600BF02210A4800F0B7
:1039400021F80028F9D02146074800F027F800BFE9
:103950000121054800F016F80028F9D0024800F0CF
:103960001AF8C0B210BD00000030014021B1028839
:1039700042F04002028004E002884FF6BF731A4012
:10398000028070470246002013890B400BB10120D2
:1039900000E00020704701468889704781817047A8
:1039A00010B50022028802F441520B884C88234350
:1039B0008C882343CC8823430C8923434C8923439D
:1039C0008C892343CC8923431A430280838B4FF293
:1039D000FF74234083830B8A038210BD10B500F06F
:1039E00001F810BD0CB5002001900090334800682C
:1039F00040F480303149086000BF3048006800F46E
:103A0000003000900198401C0190009818B901986E
:103A1000B0F5A06FF1D12948006800F4003010B172
:103A20000120009001E0002000900098012843D17F
:103A30002348006840F010002149086008460068EB
:103A400020F0030008600846006840F002000860AB
:103A50001A48406819494860084640684860084666
:103A6000406840F4806048600846406820F47C105C
:103A700048600846406840F4E8104860084600681E
:103A800040F08070086000BF0C48006800F00070D3
:103A90000028F9D00948406820F003000749486031
:103AA0000846406840F00200486000BF0348406894
:103AB00000F00C000828F9D10CBD000000100240F5
:103AC000002002402DE9FF41074655260020FEF761
:103AD00041FB0020FEF768FB0020FEF78FFB00256E
:103AE0002BE04FF480717E48FFF7A9F81420FDF712
:103AF00095FC4FF480717A48FFF7A3F81420FDF786
:103B00008DFC02A8FDF7B0FE76480088BDF80810CD
:103B1000084400B27349088008464088BDF80A107E
:103B2000084400B26F49488008468088BDF80C10F0
:103B3000084400B26B4988806D1C0A2DD1DB6948AE
:103B4000B0F9000040420A2190FBF1F000B2654953
:103B500008800846B0F9020040420A2190FBF1F0CB
:103B600000B2604948800846B0F9040040420A218A
:103B700090FBF1F000B25B498880002522E0002430
:103B80000BE0E006060E4FF480715548FFF757F83A
:103B90001420FDF743FC601CC4B21E2CF1DB14247E
:103BA0000DE004EB44008006060E4FF480714C4893
:103BB000FFF747F81420FDF731FC601EC4B2002C5B
:103BC000EFDC6D1C032DDADB4FF480714448FFF706
:103BD00036F84FF400514448FFF733F86420FDF7FE
:103BE0001DFC4FF400514048FFF729F8FDF7CEFEC9
:103BF00000233EA219461846FDF780FF002340A28D
:103C000001211846FDF77AFF002343A2022118463E
:103C1000FDF774FF002346A202211E20FDF76EFF70
:103C2000002345A203211846FDF768FF002348A2A0
:103C300004211846FDF762FF00234BA20521184618
:103C4000FDF75CFF00234EA206211846FDF756FF44
:103C500003F012FF5048032100234FF48072CDE996
:103C600000104EA1504804F067FF50480421002383
:103C70008022CDE900104EA1504804F05DFF50486D
:103C8000062100238022CDE900104EA1504804F007
:103C900053FF50480A2100238022CDE900104EA195
:103CA000504804F049FF50480B2100238022CDE901
:103CB00000104EA1504804F03FFF5048052100235A
:103CC0004FF48072CDE900104DA1504804F034FF4C
:103CD0004F48006804F0E8F803F010FFBDE8FF81EA
:103CE0000008014064000020001001402020202A2C
:103CF0002046534D20414B4D202A2020200000001B
:103D00002D2D2D2D2D2D2D2D2D2D2D2D2D2D2D2DE3
:103D10002D2D2D2D2D000000205665723A56302E87
:103D20003030204D6F643A524F5320202000000065
:103D300056312E303000000020566F6C3A31322E52
:103D400032562047797A3A30303030302000000047
:103D50002064313A30302E3030302064323A303006
:103D60002E3030300000000020416E673A30303095
:103D70002E30302056656C3A302E30303020000026
:103D8000204D54413A30302E3030204D54423A2D9F
:103D9000302E30302000000004000020526F626F8F
:103DA000745F5461736B0000C9380008080000207C
:103DB0004B65795F5461736B00000000492F000868
:103DC0000C000020446973705F5461736B00000045
:103DD00085270008100000205472697669615F54DD
:103DE00061736B0001480008140000205073325FBB
:103DF0005461736B00000000193200081C000020A1
:103E00004136395F5461736B00000000510C0008AB
:103E100000000020042808D14FF0E021096941F09A
:103E200004014FF0E022116107E04FF0E021096941
:103E300021F004014FF0E0221161704710B504F049
:103E4000ABFE012801D004F021FB10BD10B51348D2
:103E5000006840F0010011490860084640681049B8
:103E600008400E494860084600680E4908400B4962
:103E700008600846006820F4802008600846406812
:103E800020F4FE0048604FF41F008860FFF7A6FD95
:103E90004FF000600449086010BD000000100240AF
:103EA0000000FFF8FFFFF6FE08ED00E0F0B50C465D
:103EB000154600220021068C4FF6FE773E40068410
:103EC000028B018C4FF60C7632407E1C06EA0316FC
:103ED0002E433243104EB0420ED0104EB0420BD0A3
:103EE000B0F1804F08D00E4EB04205D00D4EB0421A
:103EF00002D00D4EB04206D14FF6FD76314044F06F
:103F00000106314305E04FF6F576314044F00106F5
:103F1000314302830184F0BD002C01400034014094
:103F20000004004000080040000C0040F0B50C46C2
:103F30001546002200210026078C4FF6EF7C07EA89
:103F40000C070784028B018C4FF6FF7707EA0416F3
:103F500040F6FF473A404FF6FF7707EA03373A4308
:103F60004FF6FF7707EA05273A43114FB8420ED0C4
:103F7000104FB8420BD0B0F1804F08D00E4FB8426E
:103F800005D00E4FB84202D00D4FB84206D14FF6C1
:103F9000DF77394046F01007394305E04FF65F7789
:103FA000394044F01007394302830184F0BD00001A
:103FB000002C014000340140000400400008004093
:103FC000000C0040F0B50C461546002200210026EA
:103FD000078C4FF6FF6C07EA0C070784828B018C75
:103FE0004FF6FF7707EA04264FF60C773A404FF674
:103FF000FF7707EA03172F433A43114FB8420ED019
:10400000104FB8420BD0B0F1804F08D00E4FB842DD
:1040100005D00E4FB84202D00D4FB84206D14FF630
:10402000FF57394046F48077394305E04FF2FF5798
:10403000394044F48077394382830184F0BD000025
:10404000002C014000340140000400400008004002
:10405000000C0040F0B50C46154600220021002659
:10406000078C4EF6FF7C07EA0C070784828B018CD5
:104070004FF6FF7707EA043640F6FF473A404FF61F
:10408000FF7707EA05273A434FF6FF7707EA03373A
:104090003A43114FB8420ED0104FB8420BD0B0F196
:1040A000804F08D00E4FB84205D00E4FB84202D014
:1040B0000D4FB84206D14DF6FF77394046F4805790
:1040C000394305E047F6FF57394044F480573943F8
:1040D00082830184F0BD0000002C014000340140C7
:1040E0000004004000080040000C004021B102889C
:1040F00042F08002028004E002884FF67F731A408B
:104100000280704721B1028842F00102028004E07F
:1041100002884FF6FE731A400280704731B1B0F842
:10412000442042F40042A0F8442005E0B0F84420C6
:10413000C2F30E02A0F844207047000010B50446F8
:104140006848844208D10121C014FFF7C7F8002154
:10415000E014FFF7C3F8C4E0B4F1804F08D10121A7
:104160000846FFF79BF800210120FFF797F8B8E019
:104170005D48844208D101210220FFF78FF8002119
:104180000220FFF78BF8ACE05848844208D10121A7
:104190000420FFF783F800210420FFF77FF8A0E058
:1041A0005348844208D101210820FFF777F8002105
:1041B0000820FFF773F894E04E48844208D10121AB
:1041C0001020FFF76BF800211020FFF767F888E058
:1041D0004948844208D101212020FFF75FF80021DF
:1041E0002020FFF75BF87CE04448844208D101219D
:1041F0004014FFF773F800216014FFF76FF870E0C8
:104200003F48844209D10121C804FFF767F8002123
:104210004FF40020FFF762F863E03A48844209D186
:1042200001210805FFF75AF800214FF48010FFF72D
:1042300055F856E03448844209D101214805FFF77A
:104240004DF800214FF40010FFF748F849E02F48DF
:10425000844208D101214020FFF720F800214020AE
:10426000FFF71CF83DE02A48844208D10121802054
:10427000FFF714F800218020FFF710F831E02548FF
:10428000844208D101218015FFF708F80021A0150C
:10429000FFF704F825E02048844209D101210804F1
:1042A000FFF71CF800214FF48030FFF717F818E0F3
:1042B0001A48844209D101214804FFF70FF8002170
:1042C0004FF40030FFF70AF80BE01548844208D19C
:1042D00001218804FFF702F800214FF48020FEF747
:1042E000FDFF10BD002C014000040040000800400C
:1042F000000C004000100040001400400034014059
:10430000004C0140005001400054014000180040A2
:10431000001C0040002000400040014000440140DB
:1043200000480140F0B50C4615461E46002100220B
:1043300000230189028B038C4FF6F8773940214323
:104340004FF6FC473A4040F201173A434FF6DD770B
:104350003B404FF6FF7707EA06172F433B430181A7
:1043600002830384F0BD000070B505460C46244866
:1043700085420ED0234885420BD0B5F1804F08D03E
:104380002148854205D02148854202D020488542F7
:1043900000D100E000BF208850B92389A28861883D
:1043A0002846FFF783FDE188284600F0A1F925E0C3
:1043B000208804280AD12389A28861882846FFF72B
:1043C000B5FDE188284600F09CF917E02088082810
:1043D0000AD12389A28861882846FFF7F3FDE18886
:1043E000284600F09BF909E02389A28861882846C5
:1043F000FFF730FEE188284600F099F970BD000013
:10440000002C01400034014000040040000800403E
:10441000000C0040002101804180012181800021A9
:10442000C18001817047000070B500240022002384
:10443000058C4FF6FE7635400584028C8388048B0C
:104440004FF68F752C40B51E2C400D882C43751EE1
:104450002A400D892A434D882A43144DA8420BD087
:10446000134DA84208D0134DA84205D0124DA842C2
:1044700002D0124DA84213D14FF6F7752A404D894C
:104480002A434FF6FB752A408D882A434FF6FF6575
:104490002B404FF6FF552B408D892B43CD892B4365
:1044A00083800483CD888586028470BD002C014002
:1044B00000340140004001400044014000480140F8
:1044C0000A460021018B4FF6F7731940114301830F
:1044D0007047000070B5002400220023058C4FF6C1
:1044E000EF7635400584028C8388048B48F6FF758F
:1044F0002C404FF6FF452C400D884FF6FF7606EA1C
:1045000005252C434FF6DF752A400D8906EA05156F
:104510002A434D8806EA05152A43154DA84202D0C4
:10452000144DA8421DD14FF67F752A404D894FF694
:10453000FF7606EA05152A434FF6BF752A408D8897
:1045400006EA05152A434FF6FF352B404FF2FF755B
:104550002B408D8906EA85052B43CD8906EA850522
:104560002B4383800483CD880587028470BD0000BF
:10457000002C0140003401400A460021018B4FF21B
:10458000FF7319404FF6FF7303EA022319430183B7
:104590007047000070B5002400220023058C4FF600
:1045A000FF6635400584028C8388848B4FF68F75B7
:1045B0002C404FF6FC752C400D882C434FF6FF55D0
:1045C0002A400D894FF6FF7606EA05252A434D88D5
:1045D00006EA05252A43154DA84202D0144DA842EB
:1045E0001DD14FF2FF752A404D894FF6FF7606EA3E
:1045F00005252A434FF6FF352A408D8806EA052512
:104600002A434EF6FF752B404DF6FF752B408D89E2
:1046100006EA05152B43CD8906EA05152B43838051
:104620008483CD888587028470BD0000002C014002
:10463000003401400A460021818B4FF6F773194080
:10464000114381837047000070B5002200230024CD
:10465000058C4EF6FF7635400584038C8488828B6A
:1046600048F6FF752A404FF6FF452A400D884FF661
:10467000FF7606EA05252A434DF6FF752B400D8986
:1046800006EA05352B434D8806EA05352B430B4DCD
:10469000A84202D00A4DA84208D14BF6FF752C4023
:1046A0008D894FF6FF7606EA85152C438480828338
:1046B000CD88A0F84050038470BD0000002C01405C
:1046C000003401400A460021818B4FF2FF731940EC
:1046D0004FF6FF7303EA02231943818370478186F3
:1046E00070470187704781877047A0F84010704776
:1046F000028B4FF6F3731A400283028B0A43028344
:104700007047028B4FF2FF331A400283028B4FF641
:10471000FF7303EA01231A4302837047828B4FF62B
:10472000F3731A408283828B0A4382837047828BA1
:104730004FF2FF331A408283828B4FF6FF7303EAF6
:1047400001231A4382837047002202881D4B98423E
:104750000ED01D4B98420BD0B0F1804F08D01B4BB0
:10476000984205D01A4B984202D01A4B984204D175
:104770004FF68F731A404B881A43174B984207D055
:10478000164B984204D04FF6FF431A40CB881A4389
:1047900002808B8883850B8803850A4B98420BD057
:1047A000094B984208D00E4B984205D00D4B9842C9
:1047B00002D00D4B984201D10B7A038601238382EC
:1047C00070470000002C014000340140000400400C
:1047D00000080040000C00400010004000140040A1
:1047E0000040014000440140004801404FF6FF7185
:1047F000818000210180C1804180017270470000EA
:10480000ABE0FDF741FF5549088008460088B0F548
:10481000856F64DC10215248FEF708FAC0F10100F0
:10482000C4B2224610214E48FEF70DFA4B480088CC
:10483000B0F57D7F57DA10214948FEF700FA474866
:104840000088B0F5767F46DA46480088401C454926
:104850000880084600880A2845DD4FF480714248E8
:10486000FEF7EFF910213E48FEF7E9F93F480068EE
:1048700003F0DCFC3E48006803F0D8FC0020FCF7A5
:104880001BFF0020FCF742FFFDF780F822E0002329
:1048900038A203211846FDF731F900233BA2052178
:1048A0001846FDF72BF94FF400512D48FEF7C9F9D2
:1048B0001E2003F04DFA4FF400512948FEF7BFF9CE
:1048C0004FF47A7003F044FAFDF760F84FF47A7011
:1048D00003F03EFADBE700202249088003E01021C4
:1048E0001F48FEF7AEF92F48007820B32D48007816
:1048F00001280FD141031A48FEF7A3F9C82003F09D
:1049000027FA4FF400511648FEF799F9002025497F
:10491000087010E04FF400511148FEF792F94FF47F
:104920007A7003F015FA4FF400510D48FEF787F93D
:1049300000201C4908704FF480710B48FEF776F98F
:10494000C0F10100C4B222464FF480710648FEF760
:104950007AF94FF4FA7003F0FBF952E756000020A1
:1049600000100140880000200008014004000020E1
:104970000C00002020202020204C6F7720706F77C3
:104980006572202020202020000000002020526F8F
:10499000626F74206861732073746F707065642037
:1049A000000000007000002010B540F22551F648CC
:1049B00000F0E6FF00287CD0F34801F09DF8C4B277
:1049C00040F22551F04800F0B3FFF0480078042889
:1049D0000BDAAA2C05D1ED480078401CEB49087091
:1049E000CBE00020E9490870C7E0E84800780A28D1
:1049F00070DAE648007803286CDDE4480078001F90
:104A0000062868D2DFE800F003156E80929F54B943
:104A1000DE480078401CDD490870DD4800782044FD
:104A2000DB490870A1E00020D8490870D849087017
:104A300000BF022C0DD10220D6490870D34800785F
:104A4000401CD2490870D24800782044D0490870F0
:104A50008BE00D2C0DD10D20CE490870CB4800788D
:104A6000401CCA490870CA4800782044C8490870E8
:104A70007BE00F2C0DD10F20C6490870C348007889
:104A8000401CC2490870C24800782044C0490870E0
:104A90006BE0102C0ED11020BE490870BB48007886
:104AA000401CBA490870BA4800782044B8490870D8
:104AB0005BE0E5E0142C0FD11420B6490870B34830
:104AC0000078401CB1490870B14800782044B049D2
:104AD00008704AE04AE047E00020AC490870AC4961
:104AE000087000BF54B9A9480078401CA749087055
:104AF000A74800782044A649087036E00020A34962
:104B00000870A349087000BF54B9A0480078401C41
:104B10009E4908709E48007820449D49087024E012
:104B200000209A4908709A49087000BF9A4804709A
:104B300096480078401C95490870954800782044B4
:104B40009349087011E09448007800EB04209249E2
:104B500008708E480078401C8C4908708C4800789A
:104B600020448B49087000E000BF06E087480078C9
:104B70000A2802D100208949087086480078022856
:104B80007ED1864800780028FAD18048007809282C
:104B900076DD7E480078BE2873DA7C4800780A38D3
:104BA0000F2190FBF1F201FB12007D4908700846CD
:104BB00000780F2866D2DFE800F0081A36496A7DCF
:104BC0009AB7D4FFFDFCFBFAF9007648007800EBB9
:104BD0008000754921F820406D48007820446C49D8
:104BE00008706A480078401C6849087085E16D4883
:104BF000007800EB80006C4931F8200000EB0420C5
:104C000000B26849097801EB8101674A22F8210066
:104C10005F48007820445E4908705C480078401C7A
:104C20005A49087069E15F48007800EB80005E49EE
:104C300001EB8000448056480078204454490870B5
:104C400052480078401C5149087056E15548007898
:104C500000EB8000544901EB8000408800EB042009
:104C60005049097801EB81014F4A02EB81014880EC
:104C7000474800782044464908704448007802E0DC
:104C8000AAE13BE138E1401C4049087035E1454864
:104C9000007800EB8000444901EB800044603C4810
:104CA000007820443A49087038480078401C374959
:104CB000087022E13B48007800EB80003A4901EBA4
:104CC0008000406800EB04203649097801EB81013F
:104CD000354A02EB810148602D48007820442C4978
:104CE00008702A480078401C2849087005E12D48C2
:104CF000007800EB80002C4901EB8000406800EB5D
:104D000004402849097801EB8101274A02EB81011F
:104D100048601F48007820441D4908701B480078EF
:104D2000401C1A490870E8E01E48007800EB80003B
:104D30001D4901EB8000406800EB046019490978C7
:104D400001EB8101184A02EB8101486010480078AC
:104D500020440F4908700D480078401C0B4908702A
:104D6000CBE01048007800EB80000F4901EB800099
:104D70000472074800782044054908700348007809
:104D8000401C02490870B8E0004C0040EC000020D4
:104D9000ED000020EF000020F0000020F8000020CF
:104DA000F9000020EE000020C004002081E06DE04A
:104DB0004FE031E013E0FFE78848007800EB800027
:104DC000874901EB8000C46086480078204485490B
:104DD000087085480078401C834908708DE07F4842
:104DE000007800EB80007E4901EB8000C06800EB9A
:104DF00004207A49097801EB8101794A02EB8101AB
:104E0000C860784800782044764908707648007871
:104E1000401C7549087070E07048007800EB800015
:104E20006F4901EB8000C06800EB04406B490978D2
:104E300001EB81016A4A02EB8101C8606948007890
:104E400020446849087068480078401C664908702A
:104E500053E06248007800EB8000614901EB80007C
:104E6000C06800EB04605D49097801EB81015C4A90
:104E700002EB8101C8605B48007820445949087002
:104E800059480078401C5849087036E0534800786B
:104E900000EB8000524901EB800004825148007809
:104EA00020445049087050480078401C4E49087012
:104EB00023E04A48007800EB8000494901EB80007C
:104EC000008A00EB042000B24449097801EB81011B
:104ED000434A02EB8101088242480078204441495C
:104EE000087041480078401C3F4908703B480078F2
:104EF000401C3A49087000E000BF00BF3A48007803
:104F0000BE280CD13948046037480078401C364927
:104F10000870344800782044324908705CE0324818
:104F20000078BF2810D13148006800EB04202F49D9
:104F300008602D480078401C2B49087029480078EB
:104F400020442849087047E027480078C02810D13D
:104F50002648006800EB0440244908602248007895
:104F6000401C214908701F48007820441D490870E2
:104F700032E01D480078C12810D11C48006800EBC1
:104F800004601A49086018480078401C16490870E7
:104F9000144800782044134908701DE01248007836
:104FA000C22819D10F480078844206D101F006FDCD
:104FB0000F480088401C0E490880094800880D49A8
:104FC00008800020074908700749087001200A4935
:104FD000087000200149087010BD0000EE0000209C
:104FE000C0040020ED000020EC000020F4000020B0
:104FF0002600002022000020F800002070B540F2BA
:1050000025511B4800F0BCFC002830D0184800F0A7
:1050100073FDC5B217490988481CC11700EB5161DF
:10502000C911A0EBC1118CB213480088844206D08C
:1050300012481049098845540E48048016E00023A0
:105040000FA201211846FCF759FD0B490988481C9D
:10505000C11700EB5161C911A0EBC111064A1180C3
:1050600006480449098845540248048000BF70BDC1
:1050700000500040CE000020D00000203903002066
:1050800020627566665F6F766572777269746521F6
:105090002120000010B540F225514C4800F070FC72
:1050A000002874D0494800F027FDC4B24848007871
:1050B000032823DA4648007838B9AA2C7ED145481F
:1050C000047001204249087078E0414800780128C6
:1050D0000BD1552C05D13F48447002203C49087043
:1050E0006CE000203A49087068E03A488470032078
:1050F00037490870601E384908705FE0354880788D
:10510000401E3349097888420EDD3248304909781B
:1051100044542F480078401C2D4908702E480078D0
:1051200020442D49087049E00020294908702A4888
:105130000078844242D10020284908702548C07870
:10514000502825D1234840792249097940EA012095
:1051500000B22349C8801F48C0791E49897940EAB6
:10516000012000B21E4908811A48407A1949097A7B
:1051700040EA012000B21A4948810A46B2F90A10F1
:10518000B2F90600FBF78EFE1649088016E01BE018
:105190001048C078602811D10E4840790D4909792E
:1051A00040EA012000B2104908800A48C079094944
:1051B000897940EA012000B20B494880012240F27F
:1051C0002551024800F006FC10BD000000380140E7
:1051D000C300002018020020C40000207D00002031
:1051E000900100207E0000208000002010B540F2D9
:1051F0002551334800F0C4FB00285FD0304800F050
:105200007BFCC4B22F480078032823DA2D480078AD
:1052100038B9AA2C4CD12C480470012029490870B7
:1052200046E02848007801280BD1552C05D12648A6
:1052300044700220234908703AE000202149087098
:1052400036E02148847003201E490870601E1F4903
:1052500008702DE01C488078401E1A490978884261
:105260000EDD194817490978445416480078401C47
:10527000144908701548007820441449087017E054
:1052800000201049087011480078844210D1012094
:105290000F4908700C48C078302809D10A480079B5
:1052A000552805D102200B49087001200A490870D1
:1052B000012240F22551024800F08CFB10BD000095
:1052C00000440040C600002068020020C700002003
:1052D000C50000207D0000207000002010B540F2C5
:1052E0002551F64800F04CFB00287CD0F34800F034
:1052F00003FCC4B240F22551F04800F019FBF0481D
:10530000007804280BDAAA2C05D1ED480078401C5F
:10531000EB490870CBE00020E9490870C7E0E84895
:1053200000780A2870DAE648007803286CDDE44843
:105330000078001F062868D2DFE800F003156E80B1
:10534000929F54B9DE480078401CDD490870DD4862
:1053500000782044DB490870A1E00020D84908709B
:10536000D849087000BF022C0DD10220D649087020
:10537000D3480078401CD2490870D24800782044B5
:10538000D04908708BE00D2C0DD10D20CE4908704E
:10539000CB480078401CCA490870CA4800782044AD
:1053A000C84908707BE00F2C0DD10F20C64908704A
:1053B000C3480078401CC2490870C24800782044A5
:1053C000C04908706BE0102C0ED11020BE49087047
:1053D000BB480078401CBA490870BA48007820449D
:1053E000B84908705BE0E5E0142C0FD11420B649F1
:1053F0000870B3480078401CB1490870B148007883
:105400002044B04908704AE04AE047E00020AC4937
:105410000870AC49087000BF54B9A9480078401C16
:10542000A7490870A74800782044A649087036E0CC
:105430000020A3490870A349087000BF54B9A048D0
:105440000078401C9E4908709E48007820449D4981
:10545000087024E000209A4908709A49087000BF3B
:105460009A48047096480078401C95490870954801
:10547000007820449349087011E09448007800EBCC
:105480000420924908708E480078401C8C490870AE
:105490008C48007820448B49087000E000BF06E08B
:1054A000874800780A2802D1002089490870864878
:1054B000007802287ED1864800780028FAD18048FA
:1054C0000078092876DD7E480078BE2873DA7C48AB
:1054D00000780A380F2190FBF1F201FB12007D49A0
:1054E0000870084600780F2866D2DFE800F0081A36
:1054F00036496A7D9AB7D4FFFDFCFBFAF90076487D
:10550000007800EB8000754921F820406D48007854
:1055100020446C4908706A480078401C684908704B
:1055200085E16D48007800EB80006C4931F820007F
:1055300000EB042000B26849097801EB8101674A59
:1055400022F821005F48007820445E4908705C48DA
:105550000078401C5A49087069E15F48007800EB08
:1055600080005E4901EB800044805648007820446A
:105570005449087052480078401C5149087056E15F
:105580005548007800EB8000544901EB80004088CA
:1055900000EB04205049097801EB81014F4A02EBEE
:1055A00081014880474800782044464908704448B3
:1055B000007802E0AAE13BE138E1401C4049087074
:1055C00035E14548007800EB8000444901EB80005C
:1055D00044603C48007820443A49087038480078D4
:1055E000401C3749087022E13B48007800EB8000FE
:1055F0003A4901EB8000406800EB04203649097805
:1056000001EB8101354A02EB810148602D480078A9
:1056100020442C4908702A480078401C284908700A
:1056200005E12D48007800EB80002C4901EB80005B
:10563000406800EB04402849097801EB8101274AC2
:1056400002EB810148601F48007820441D49087022
:105650001B480078401C1A490870E8E01E48007892
:1056600000EB80001D4901EB8000406800EB046006
:105670001949097801EB8101184A02EB8101486060
:105680001048007820440F4908700D480078401CED
:105690000B490870CBE01048007800EB80000F4900
:1056A00001EB800004720748007820440549087027
:1056B00003480078401C02490870B8E000480040E8
:1056C000D4000020D5000020D7000020D800002002
:1056D000E0000020E1000020D6000020BC030020F4
:1056E00081E06DE04FE031E013E0FFE788480078AB
:1056F00000EB8000874901EB8000C4608648007899
:1057000020448549087085480078401C834908700A
:105710008DE07F48007800EB80007E4901EB80003F
:10572000C06800EB04207A49097801EB8101794ACD
:1057300002EB8101C86078480078204476490870FF
:1057400076480078401C7549087070E07048007811
:1057500000EB80006F4901EB8000C06800EB044063
:105760006B49097801EB81016A4A02EB8101C8604B
:105770006948007820446849087068480078401CEF
:105780006649087053E06248007800EB8000614988
:1057900001EB8000C06800EB04605D49097801EB13
:1057A00081015C4A02EB8101C8605B4800782044BB
:1057B0005949087059480078401C5849087036E02B
:1057C0005348007800EB8000524901EB80000482CE
:1057D0005148007820445049087050480078401CD7
:1057E0004E49087023E04A48007800EB80004949A0
:1057F00001EB8000008A00EB042000B244490978E4
:1058000001EB8101434A02EB8101088242480078A2
:1058100020444149087041480078401C3F490870C5
:105820003B480078401C3A49087000E000BF00BFC8
:105830003A480078BE280CD13948046037480078CF
:10584000401C3649087034480078204432490870BA
:105850005CE032480078BF2810D13148006800EB86
:1058600004202F4908602D480078401C2B490870FF
:105870002948007820442849087047E027480078E4
:10588000C02810D12648006800EB04402449086075
:1058900022480078401C214908701F4800782044A5
:1058A0001D49087032E01D480078C12810D11C48FD
:1058B000006800EB04601A49086018480078401C32
:1058C00016490870144800782044134908701DE0F8
:1058D00012480078C22819D10F480078844206D1B6
:1058E00000F0FCFF0F480088401C0E490880094862
:1058F00000880D4908800020074908700749087092
:1059000001200A49087000200149087010BD0000FC
:10591000D6000020BC030020D5000020D4000020C9
:10592000DC0000202400002020000020E0000020F7
:1059300010B50022002340F66A14A14200D100BF36
:105940000A1201249440A3B2DC43048010BD21B1AB
:10595000828942F40052828104E082894DF6FF730D
:105960001A408281704702460020B1F5007F00D1C5
:1059700000BF13880B400BB1012000E000207047EE
:1059800070B50246002400230025002040F66A1668
:10599000B14200D100BFC1F3421501F01F0301263F
:1059A00006FA03F3012D02D19689334006E0022D59
:1059B00002D1168A334001E0968A33400C12012648
:1059C00006FA04F41688344013B10CB1012000E04B
:1059D000002070BDF0B503460024002600250020FD
:1059E00040F66A17B94200D100BF1846C1F342140D
:1059F00001F01F06012707FA06F5012C01D10C3032
:105A000004E0022C01D1103000E014301AB1076814
:105A10002F43076002E00768AF430760F0BD000056
:105A20002DE9F04786B005460E460024A24600BF89
:105A3000A1460027B08900B100BF2F462C8A4CF642
:105A4000FF700440F08804432C82AC894EF6F310BA
:105A50000440B08831890843718908430443AC810C
:105A6000AC8A4FF6FF400440B0890443AC8201A8E1
:105A7000FDF744FC1F48874202D1DDF810A001E089
:105A8000DDF80CA0A88900F4004040B10AEBCA0080
:105A900000EB0A1031684900B0FBF1F807E00AEBAF
:105AA000CA0000EB0A1031688900B0FBF1F86420ED
:105AB000B8FBF0F004012009642101FB1089A889DA
:105AC00000F4004040B1322000EBC900B0FBF1F01F
:105AD00000F00700044308E0322000EB09106421C5
